:020000041028C2
:1000000000000C288D7E2810E18A28100D88281009
:10001000E58A2810E98A2810ED8A281000000000DF
:10002000000000000000000000000000D988281037
:10003000F18A281000000000F58A2810F98A28109B
:100040002B79281051792810777928109D7928105C
:10005000C3792810E97928100F7A2810357A2810EA
:10006000FD8A2810018B2810058B2810098B281079
:100070000D8B2810118B2810158B2810198B281028
:1000800040F0200070472DE9F14FB0B09246049146
:100090000DF142013A9A2B9199464A7000200AE0EC
:1000A0001AF8011B0498309A90470028049000F039
:1000B00034860D98401C0D909AF8000050B1252808
:1000C000EED1002100220791089209910A920B912A
:1000D0000C9204E00D9800F022BE41F001011AF8E4
:1000E000010F2028F9D023280CD02B2804D02D284C
:1000F00005D0302809D00BE041F00201EFE741F0D4
:100100000401ECE741F00801E9E741F01001E6E7FE
:100110002A280FD1D9F8002052F8040BC9F8002082
:1001200000280F9003D540420F9041F004010AF1DE
:10013000010A14E00F92DFF8EC3B0AE00F989842B6
:1001400005DA00EB800402EB4402303A0F920AF128
:10015000010A9AF80020A2F130000A28EED39AF89A
:1001600000002E2803D04FF0FF320E9229E01AF83B
:10017000010F2A2809D1D9F8000050F8042BC9F83A
:1001800000000E920AF1010A1BE02D280CBF0AF1B3
:10019000010A002000220E92DFF8884B0BE040B9E4
:1001A0000E9AA24205DA02EB820503EB4503303BCF
:1001B0000E930AF1010A9AF80030A3F130020A2ADC
:1001C000EDD3ADF840100FF660309AF8001000F053
:1001D000EDFE08B11AF8010B8DF842009DF84200BF
:1001E000682805D19AF8000068280CD1622106E041
:1001F0006C2804BF9AF800006C2804D171218DF896
:1002000042100AF1010A12A806901AF801BBBBF1CC
:1002100025012CD01C3900F09481091F022940F2DD
:100220009081133900F0AB84093900F08A81891E6E
:1002300000F04085491E00F0ED84491E022940F27D
:100240008081091F00F0E684491F00F0EF80491EFD
:1002500000F09584491E00F0D780C91E0CD0891E7D
:1002600000F08D84C91E00F08A8400F02EBD0123A9
:100270000793252100F026BDD9F8000050F8044B63
:10028000C9F80000002C059440F0AB802B99487809
:10029000002800F0A1804FF0FF340FF6942000F00A
:1002A00095FE241A40F0398500F01BBD01236A46F3
:1002B00002A9304600F000FE002840F02E85641EA2
:1002C000F4D13096079C12AF74B1309E17F8011B21
:1002D0000498B0470028049000F01F850D98401C3A
:1002E000641E0D90F2D130960A9C3021002C8DF8BE
:1002F00000100CDD309E01236A4602A9304600F052
:10030000DBFD002840F00985641EF4D13096059F7E
:10031000089C74B1309E17F8011B0498B047002860
:10032000049000F0FA840D98401C641E0D90F2D1E8
:1003300030960B9C3021002C8DF800100CDD309E87
:1003400001236A4602A9304600F0B6FD002840F0BD
:10035000E484641EF4D1309605980899099C4718E6
:1003600074B1309E17F8011B0498B0470028049020
:1003700000F0D3840D98401C641E0D90F2D130968D
:100380000C9C3021002C8DF800100CDD309E0123D8
:100390006A4602A9304600F08FFD002840F0BD8477
:1003A000641EF4D130969DF8400041077FF584AE7D
:1003B0002020002D8DF800007FF77EAE309C0123B9
:1003C0006A4602A9204600F077FD002840F0A58487
:1003D0006D1EF4D130946FE60FF63C30059000F0BE
:1003E00080BC0E9D002D04D5204600F00FFE044673
:1003F00007E02A46204600F025FE002814BF041B13
:100400002C46089400F06DBCD9F8001051F8040B8C
:10041000C9F8001020F00004002121F0FF35CDE9DB
:10042000024512AB0593782100F040BC2B99487827
:1004300020B14FF0FF340FF6B02030E79DF84200B6
:10044000622860D0682817D06A283FD06C2806D070
:10045000712847D074282CD07A281DD062E0D9F8B2
:10046000001051F8040BC9F80010002866D14FF0B5
:10047000FF340FF68C2012E7D9F8001051F8040B66
:10048000C9F8001020B94FF0FF340FF6742006E7CA
:100490000D99018000F025BCD9F8001051F8040B2B
:1004A000C9F80010002849D14FF0FF340FF6502052
:1004B000F5E6D9F8001051F8040BC9F8001000282F
:1004C0003CD14FF0FF340FF63820E8E6D9F80010A1
:1004D00051F8040BC9F8001080B94FF0FF340FF643
:1004E0002020DCE6D9F8001051F8040BC9F8001000
:1004F00020B94FF0FF340FF60820D0E60D9AD3173D
:10050000C0E90023EDE3D9F8001051F8040BC9F855
:10051000001020B94FF0FF340FF6E410BFE60D993C
:100520000170DEE3D9F8001051F8040BC9F800108F
:1005300020B94FF0FF340FF6C810B0E60D990160F6
:10054000CFE39DF842004C2807BFD9F80010CA1D20
:10055000D9F80000C21D22F00702C9F80020D2E934
:1005600000010832C9F80020CDE90201C80F02D00D
:1005700007982D210AE0BDF84000810702D50798B1
:100580002B2103E0C00705D50798202112AA11549A
:10059000401C079012A807994BF0200300EB010CB8
:1005A000DDE90201CDE92C01612BCDF814C021ACAD
:1005B0000BD00E98002848BF062105D404BF4BF08D
:1005C0002000672801D101210E91DDE902014F00D1
:1005D00047EAD0777E15FF174FF0FF32974208BFEA
:1005E000964210D1090341EA10510003002908BFC7
:1005F000002808D0ABF1610503211A2D089118D30A
:100600000FF61C1110E0DDE902014A00521512F14B
:10061000010F11D108030FD1ABF1610503211A2D90
:1006200008911FD30FF600110322604600F036FD3B
:1006300057E30FF6E801F7E7DDE902016A4600F04B
:1006400081FDCDE902014BF02000612811D1059810
:1006500030210170821C0592BBF1610F0CBF782123
:10066000582102E00FF6BC01DEE741700798801CBC
:100670000790DDE9020120F0000231F0004308BFDD
:10068000002A02D10026002542E14BF02008B8F1F3
:10069000610F40F092800E98002847BF2121019100
:1006A000401C0190019FDDE92C017F1C00220023EA
:1006B000DDE9024500F07EFD38BF85F00045009978
:1006C0008DF88420091F002F00910DF1850632DD81
:1006D000204629460022002300F086FD2BD21C2252
:1006E00000F09CFD04460D4600F01AFEFF1F002F8F
:1006F000804609DD00F01BFE02460B4620462946D7
:1007000000F01CFE04460D46F01D0721B8F1000F55
:100710000CDD491E5EBF08F00F0200F8012D4FEA04
:100720002818F3D502E0002200F8012D491EFAD561
:10073000C61D002FCCDC0DF18500361A01980DF195
:1007400085048642D8BF304600282FD4B04206DA4E
:100750000DF185010A5C082AA8BF0F2100DA0021EB
:10076000024621AB134400E0401E13F80159521E0B
:100770008D42F9D00F2904D10DF185018B5C5B1CF2
:100780008B54002A04D50099091D21AC401C00910E
:10079000411E0BD4621813783033DDB23A2DA4BF5A
:1007A0005B443A3B491E02F80139F4D50E99002901
:1007B00040F1AC80421E0E92A8E00099DFF8E826D6
:1007C00047F29750414391FBF2F20092DDE92C454C
:1007D000C2F10702002A25F0004504DD2046294623
:1007E00000F03EFB0BE052420020DFF8C01600F0A4
:1007F00037FB02460B462046294600F0A8FD04467A
:100800000D46B8F1660F06BF009F0A3706270E98FF
:100810003F18142FC8BF142730208DF884000DF125
:100820008506002F34DD2046294600F099FD01465B
:100830000A4606F1080304200A26B2FBF6F606EB88
:10084000860EA2EB4E02303203F8012C0A22B6FBD0
:10085000F2F202EB820EA6EB4E063036401E03F893
:10086000026DE9D1083F002F03F10806D9DD0846E3
:1008700000F07DFD02460B462046294600F05EFD55
:100880000022DFF82C3600F079FD04460D46CAE759
:100890000DF18500361A0DF1850404E00098401E24
:1008A000761E0090641C20783028F7D0B8F1660FCF
:1008B00002D10098401C04E0B8F1650F0CBF012084
:1008C00000200E9940188642B8BF701E00281DD423
:1008D000B04204DA215C3429C8BF392100DC302160
:1008E0000246631E9D1800E0401E15F80169521E65
:1008F0008E42F9D0392902D1A15C491CA154002AA9
:1009000004D50099491C1C46401C00910646009DD8
:100910000E9F30B2002802DC01260FF210644BF06B
:100920002000662808BF6D1C15D067280FFA85F8CF
:1009300041D118F1040F44DBB84542DA9DF840007C
:100940006D1C010703D430B2B842D8BF074628B2A5
:100950003F1A48BF00270FFA85F8B8F1000F00F3DF
:10096000AF800898411C0891302205990A54002F45
:1009700003DC9DF84000010705D50898411C08914B
:100980002E2205990A5417EB080FB8BF7D422DB2ED
:100990006842ED1932B20B909542B8BF2E46059BC6
:1009A000089836B2099632462146184400F076FB84
:1009B000AD1B0C95CCE0BBF1610F15D14FF0700B66
:1009C00017E030B2B84204DA9DF840100A0758BF69
:1009D00007467F1E48BF0027BBF1670F14BF4FF0CB
:1009E000450B4FF0650B04E0BBF1410F08BF4FF022
:1009F000500B0898411C0891002F059914F8012B01
:100A00000A5403DC9DF84000010719D50898411CE1
:100A100008912E2205990A54002F11DD761E30B25E
:100A20008742B8BF3E460598089B32B2214618441B
:100A300000F034FB089836B23018BF1B08900B97B3
:100A4000059808990844B8F1000F80F800B003D465
:100A50002B224270821C04E02D2145464170821CED
:100A60006D4200212CAB28460AE004460A2094FB84
:100A7000F0F000EB8005A4EB450403F8014B491CA2
:100A800000B20028F1DC012906DC4BF020006528CB
:100A900004BF302002F8010B00292CAB08D1302014
:100AA00002F8010B06E0491E585C303002F8010BD9
:100AB0000029F8DC059908980844121A099247E0C1
:100AC00030B229B288421BDA0598089B32B221461F
:100AD000184400F0E3FA089936B271180891A8EBAF
:100AE0000600002F0B9003DC9DF84000020705D59F
:100AF000059A2E2050540999491C09910C9727E01A
:100B00000598089B2AB22146184400F0C7FA0898B5
:100B1000761B4044002F089003DC9DF840100A0724
:100B200004D5411C08912E2205990A5430B28742FF
:100B3000B8BF3E460598089B32B204EB0801184442
:100B400000F0ACFA089836B23018BE1B08900B962D
:100B50009DF8400000F01400102840F0C280079A71
:100B600008980B99821809988A1882180C980F997E
:100B70008018884280F2B580081A0A90B1E09DF88A
:100B80004200622808D068280ED06A2814D06C2849
:100B90001FD0712810D01CE0D9F8001051F8040BB8
:100BA000C9F80010C0B21AE0D9F8001051F8040BCF
:100BB000C9F8001080B212E0D9F80000C21D22F07E
:100BC0000702C9F80020D2E900010832C9F8002064
:100BD00006E0D9F8001051F8040BC9F80010002104
:100BE000CDE902019DF8400001075AD5DDE9022355
:100BF000002B08BF002A54D04BF02000782850D199
:100C0000079812A930220A54401C431C079301F88C
:100C100000B046E09DF84200622808D068280ED057
:100C20006A2814D06C281FD0712810D01CE0D9F885
:100C3000001051F8040BC9F8001040B21AE0D9F8BE
:100C4000001051F8040BC9F8001000B212E0D9F8F6
:100C50000000C21D22F00702C9F80020D2E90001FD
:100C60000832C9F8002006E0D9F8001051F8040B4A
:100C7000C9F80010C117CDE90201002902D5079873
:100C80002D210AE0BDF84000810702D507982B21ED
:100C900003E0C00705D50798202112AA1154401C73
:100CA000079012A8079901440591594602A800F03F
:100CB0004DF816E001200790D9F8000050F8041B09
:100CC000C9F800008DF848100BE001212522BBF186
:100CD000000F07918DF8482003D0022207928DF86B
:100CE00049B00F9D07990A986D1A08992D1A0B980B
:100CF0006D1A09992D1A0C986D1A9DF840102D1A2D
:100D000048073FF5DFAA2021002D8DF800107FF75E
:100D1000D9AA309E2C46FFF7C9BA4FF0FF3031B048
:100D2000BDE8F08FCBCCCC0C686A6C747A4C0000B8
:100D30007072696E74665F733A2062616420257315
:100D400020617267756D656E740000002DE9FC47C7
:100D500007468A463C6950466F2808BF082505D0DB
:100D6000FFF78EF9782814BF0A251025D7E900016E
:100D70003C2680468946BAF1640F18BFBAF1690F64
:100D800005D1002903D5D8F1000869EB4909B9F16B
:100D9000000F08BFB8F1000F0CD1386B50B9082D07
:100DA0003AD197F83800010736D530223B2684F82F
:100DB0003B2031E08DF800A0404649462A46EB171B
:100DC00000F0E6FA3032D0B2761E3A2801960EDAFA
:100DD000A255404649462A46EB1700F0D9FA80460C
:100DE0005FEA010908BFB8F1000F05D108E09DF8DE
:100DF00000001218513AEBE7F868A1198842DBD3DA
:100E0000082D09D197F83800010705D5A05D3028D5
:100E100002D0761E3020A055C6F13C03BB61A1195B
:100E2000F960386B834208DAC31A3B624FF6EF7001
:100E3000398F01403987BDE8F38700280ED597F830
:100E4000380000F01400102808D17A6B7969386AEC
:100E5000521A121AD21A002AC8BF3A62BDE8F387A2
:100E60002DE9D04306460F4614464FF00008DFF840
:100E7000449012E0E00707D542464B4630463946DB
:100E800000F07CFA06460F464046494642464B462D
:100E900000F074FA641080468946002CEAD130468E
:100EA0003946BDE8D0830000A08601000000F03F75
:100EB00084D7974100002440F8B505460E461746F2
:100EC0001C4600205CB117F8011BB068A847B06051
:100ED00030B1F06A401CF0620020641EF3D1F2BD14
:100EE0004FF0FF30F2BD00007072696E74665F7380
:100EF0003A20256E20646973616C6C6F77656400BD
:100F00007072696E74663A2062616420256E206199
:100F10007267756D656E7400000000006E616E0092
:100F20004E414E00696E6600494E46003000F0B4F6
:100F30000246106895681318506803EB5004C00708
:100F400048BF4D44A3422DD013F8016B16F00300A7
:100F500004BF13F8010BC01C31090F2907D113F886
:100F6000011B0F3103E013F8017B05F8017B401EE4
:100F7000F9D10029E6D013F8010BC6F38106032E40
:100F800008BF13F8016B00EB0620404228440026FE
:100F9000B71E8F421EBF10F8017B05F8017B761C3F
:100FA000F6D1CFE7F0BC02F10C007047C9B202786D
:100FB0008A421AB11CBF10F8012FF9E718BF0020B0
:100FC00070470268531C03601170704780B500B908
:100FD00006A005490B681BB122220021984701E0B9
:100FE00000F0EEFA222002BDB0240928636F6E7370
:100FF000747261696E742068616E646C65723A2007
:10100000626164206D6573736167650000F10103BF
:10101000810704D010F8011B820781B1FAD1026860
:10102000A2F10131914311F0803104BF50F8042F37
:10103000F6E709BAB1FA81F100EBD100401CC01A01
:1010400070470000C9B2830706D0521E22D310F8A1
:10105000013B9942F7D11FE0083A13D302F1040291
:1010600041EA012141EA014150F8043B121F21BF2E
:101070004B40A3F1013C2CEA030C1CF0803FF3D061
:10108000C9B2001F083210F8013B521E28BF91EA76
:10109000030FF8D818BF0120401E704762B38B07BA
:1010A00008D0521E11F8013B00F8013B00F02480EB
:1010B0008B07F6D1830740F0208000BF103A07D39A
:1010C00030B4B1E83810103AA0E83810F9D230BC8A
:1010D000530724BFB1E80810A0E8081044BF51F836
:1010E000043B40F8043BD20724BF31F8022B20F820
:1010F000022B44BF0B7803707047121F17D35B009D
:1011000009D151F8043B20F8023B1B0C121F20F8B8
:10111000023BF6D20BE051F8043B00F8013B1B0AFE
:1011200020F8023B1B0C121F00F8013BF3D238BF22
:10113000121D521E24BF11F8013B00F8013BF8D8E4
:101140007047000010B5144600F002F8226010BD90
:10115000C1F30A5343B14A0012F5001F28D2A3F28B
:10116000FE32A1EB0251704750EA410C20D001F051
:10117000004C31EA0C01B1FA81F204BFB0FA80F3FD
:10118000D2180B3AB2F120032CBF00FA03F19140C0
:1011900041EA0C013EBFC2F1200C20FA0CF31943C6
:1011A0009040524240F2FD33D21A01EB0351704796
:1011B0000022704741EA030C50EA4C0C52EA0C0C36
:1011C0004FF4001C09D307D01CEB410F9CBF1CEB54
:1011D000430F8B4208BF824270471CEB430FFBD882
:1011E000994208BF9042704741EA030C50EA4C0C08
:1011F00052EA0C0C4FF4001C09D307D01CEB410F32
:101200009CBF1CEB430F994208BF904270471CEBF8
:10121000410FFBD88B4208BF8242704700B541ECBA
:10122000100B104600F004F851EC100B00BD00BF8D
:10123000020030EE101B40F2FF7C37D41CEA115341
:1012400013D063456BD09B18634504D201EB025168
:1012500020EE101B704701F0004141EA0C510020C4
:1012600041EC100BAFF30080704710EE100B50EA0A
:10127000410054D0B2F57F7F08D202EB5C01090532
:10128000002041EC110B20EE010B70474FF0FE41A6
:10129000002341EC113B20EE010BB2F57E7230EEE3
:1012A000101B4FEA410342EB5353CDE752421CEA75
:1012B000115316D0634532D09A4204D2A1EB0251A9
:1012C00020EE101B70475B1ED21AA1EB035120EEDB
:1012D000101B372A0CD3002001F0004141EC100B09
:1012E000C0E710EE100B50EA410018D0372AF2D2B6
:1012F000C2EB5C021105002041EC110BF1EE100A6B
:1013000020F01F0121F4F851E1EE101A20EE010B3C
:10131000F1EE101AE1EE100A11F0080FA2D1704799
:1013200041EC100BBDEEC00B10EE100A704700EE42
:10133000100AB8EEC00B51EC100B704741EC100BCB
:1013400043EC112B30EE410B51EC100B704741EC8C
:10135000100B43EC112B80EE010B51EC100B70477E
:1013600041EC100BBCEEC00B10EE100A704700EE03
:10137000100AB8EE400B51EC100B704741EC100B0B
:1013800043EC112B20EE010B51EC100B70470000C9
:10139000BBBBE1B1B2F5803F80F07E80022A1ED94E
:1013A0008C46B1FBF2F102FB11C31B0443EA10436C
:1013B000B3FBF2FC02FB1C3380B240EA0343B3FBF5
:1013C000F2F002FB103240EA0C4000237047022A80
:1013D00005D98446B0FBF2F002FB10C270474AB157
:1013E00005D100F0010249085FEA30007047002291
:1013F0000023704700F0E8B80B0002000021002035
:101400007047904271EB030CF6D3B3F5803F2FD2B7
:10141000F0B5B3FA83F7B1FA81F4A7F10F0E3D1BD3
:101420005340CEF1200602FA0EF2F3415340B5F1DB
:101430000F0746D80F3C2C444140C4F12006A04081
:10144000F1414140B1FBF3F603FB1611A2FB064547
:10145000001BA94102D2761E8018594180EA010280
:1014600021FA0EF362FA0EF200215A403046F0BD26
:1014700030B4B1FBF3FC03FB1C11A2FB0C45001BB9
:10148000A94103D2ACF1010C8018594130BC02468D
:101490000B46604600217047B2F1807F65D3F0B5FE
:1014A000B2FA82F7B1FA81F4C7F10F063D1B22FAB6
:1014B00006F307F1110EF24120355A40B5F10F073E
:1014C000B8D94140C4F12006A040F1414140B1FBF0
:1014D000F3FC03FB1C11A2FB0C45001BA94103D22A
:1014E000BCF1010C801859410F2F12D30F3FC903D3
:1014F00041EA5041B1FBF3F603FB1611A2FB06458E
:10150000D4EBC030A94102D2761E8018594146EA78
:10151000CC3C07B34140C7F12006B840F1414140FF
:10152000B1FBF3F603FB1611A2FB0645001BA94114
:1015300002D2761E8018594180EA010221FA0EF388
:10154000C7F1200462FA0EF20CFA07F05A402CFAA6
:1015500004F13043F0BD80EA010221FA0EF30021CC
:1015600062FA0EF260465A40F0BD8C46B1FBF2F1D1
:1015700002FB11C31B0243EA1063B3FBF2FC02FB44
:101580001C331B024CEA002043EA1063B3FBF2FC5D
:1015900002FB1C331B024CEA002043EA1063B3FB3E
:1015A000F2FC02FB1C331B024CEA002043EA1063EE
:1015B000B3FBF2FC02FB1C324CEA00200023704714
:1015C000012000F003B800007047000080B5AFF3C1
:1015D0000080024A11001820ABBEFBE72600020083
:1015E000002805D0407C002802D0BFEE000A04E0AD
:1015F000C9B200EE101AB8EE400A704780B5DFF8A5
:1016000048090621417080ED010AC0ED020A80ED13
:10161000031AC0ED041A80ED052AC0ED062A00F079
:1016200042FD01BDC9B2002907D1C0B23D2801D297
:10163000012000E00020C0B206E0C0B2C82801D3FB
:10164000012000E00020C0B2704780B2BC2289B205
:1016500002FB001080B2704780B589B280B2FFF7FC
:10166000F4FF012210F007018A40DFF8E01880B291
:10167000C010085C104201D0012000E00020C0B280
:1016800002BD80B589B280B2FFF7DFFF012210F002
:1016900007018A40DFF8B41803009BB2DB10CB5C73
:1016A0001A4380B2C0100A5401BDF8B506000F00FD
:1016B00014001D00290089B2200080B2FFF7CCFF82
:1016C000002828D13900C9B2220092B2BC2042437E
:1016D00006EB02002A0092B2805CFFF7A3FF00280D
:1016E00019D0069E308845F62001884213DA290079
:1016F00089B2200080B2FFF7C4FF290089B2200020
:1017000080B2FFF7A2FFDFF84818328821F81200F4
:101710003088401C3080F1BD2DE9F04188B00400D4
:101720000D0016001A000E9B0020ADF804000120E9
:101730008DF80800ADF80A20ADF80C30ADF80E2099
:10174000ADF810300120ADF812000120ADF8140002
:101750000020069000208DF81C0001A800909BB28C
:1017600092B23100C9B22800FFF79FFF8BE0BDF8AD
:101770000400401EADF80400DFF8D407BDF80410E3
:1017800030F81110080080B2BC2290FBF2F73A004A
:1017900092B27FF0BB00424312FA81F80698401CD7
:1017A00006903800BDF80A1080B2884201D2ADF828
:1017B0000A70BDF80E00390089B2884201D2ADF836
:1017C0000E704046BDF80C1080B2884201D2ADF8D0
:1017D0000C80BDF81000414689B2884201D2ADF8B4
:1017E0001080380080B200280BD0380080B27728F3
:1017F00007D0404680B2002803D0404680B2BB28C4
:1018000002D101208DF81C00380080B200280AD0D7
:1018100001A8009043469BB27A1E92B23100C9B231
:101820002800FFF742FF380080B277280ADA01A8C3
:10183000009043469BB27A1C92B23100C9B2280094
:10184000FFF733FF404680B200280BD001A800907C
:10185000B8F101039BB23A0092B23100C9B228003C
:10186000FFF723FF404680B2BB280CDA01A80090A6
:1018700018F1010843469BB23A0092B23100C9B256
:101880002800FFF712FFBDF8040000287FF46FAFB7
:10189000BDF81010BDF80C00091A491CADF8121063
:1018A000BDF80E10BDF80A00091A491CADF8141055
:1018B000200002A91822FFF701FC08B0BDE8F08162
:1018C0000178002902D0017D002901D000200DE01F
:1018D0000169122901D2002008E04189022902D3BE
:1018E0008089022801D2002000E00120704710B555
:1018F00004002000FFF7E4FF002801D100202FE0C2
:101900006089A189884201D2618900E0A189A0890A
:101910006289904201D2628900E0A289080080B207
:10192000082803D3100080B25B2801D3002017E001
:10193000642389B2AA20414392B25A43914201D210
:1019400000200DE06189A08900FB01F0216903FB03
:1019500001F3B3EB800F01D3012000E00020C0B2FF
:1019600010BD10B504002000FFF7AAFF002801D128
:10197000002034E06089A189884201D2618900E0B9
:10198000A189A0896289904201D2628900E0A2897E
:10199000080080B2002801D1002020E0100080B2B1
:1019A000122803D3080080B2192801D3002016E0C2
:1019B00092B289B2032041438A4201D200200EE054
:1019C0006089A18901FB00F122696420424319204A
:1019D00041438A4201D3012000E00020C0B210BD83
:1019E00001004889898948437047010088894A89EC
:1019F000904201D2488900E0888980B26422096956
:101A000002FB0010704770B514001D00049E2A7878
:101A1000002A02D03268A24205D21822FFF74EFBFC
:101A200001202870346070BD2DE9F84191B00400A8
:101A30000D00160030788DF80600307E8DF8050018
:101A400096F830008DF804000020049000200390E8
:101A50000020029040F604310022DFF8F0743800D4
:101A600000F0DCFB002700E07F1C380080B2782803
:101A700069DA5FF000084AE005A8FFF772FF002866
:101A800043D005A8FFF7B1FF02A9009101AB020006
:101A900005A916F13000FFF7B6FF36E0404680B2E8
:101AA00000903B009BB22A00D2B221000BA8FFF7A6
:101AB00033FE05A80BA91822FFF700FB2800C0B2CF
:101AC0000028D9D105A8FFF712FF00280BD005A8E0
:101AD000FFF786FF04A900910DF10603020005A996
:101AE0003000FFF790FF05A8FFF73BFF00280CD060
:101AF00005A8FFF77AFF03A900910DF10503020085
:101B000005A916F11800FFF77EFF18F101084046FD
:101B100080B2BC28A8DA414689B2380080B2FFF70B
:101B20009BFD0028F1D12900C9B23A0092B2BC2035
:101B3000424304EB0200424692B2805CFFF772FD22
:101B40000028ABD1E1E712B0BDE8F08170B5040028
:101B50000D00482100222E00300000F05FFB2A001B
:101B600000212000FFF760FF2A0001212000FFF77D
:101B70005BFF70BD10B40C0024B2782C03D21400AB
:101B800024B2BC2C00D305E0BC2411FB04F10844B2
:101B900012B2835410BC70472DE9F04106000F00CB
:101BA00090461D002800414600B209B2884202DA80
:101BB0004046A8460500069C0AE02300DBB24246E8
:101BC00012B2390009B23000FFF7D4FF18F1010852
:101BD0002800414600B209B28842EEDABDE8F08141
:101BE0002DE9F04106000F0090461D0028004146F7
:101BF00000B209B2884202DA4046A8460500069CB7
:101C00000AE02300DBB23A0012B2414609B23000CA
:101C1000FFF7B0FF18F101082800414600B209B2F1
:101C20008842EEDABDE8F0812DE9F84F04000D009E
:101C30009346002630E05846C0B200903B001BB2ED
:101C4000424612B2494609B22000FFF7A5FF5846A6
:101C5000C0B200903B001BB2424612B2514609B2DC
:101C60002000FFF799FF5846C0B2009053461BB2C0
:101C70004A4612B2414609B22000FFF7B1FF58466A
:101C8000C0B2009053461BB24A4612B2390009B2A4
:101C90002000FFF7A5FF761C300000B202281ADAF8
:101CA000B5F9029016EB0909B5F9048016EB08089E
:101CB000B5F906A0BAEB060AB5F90870BF1B504685
:101CC000494600B209B2884205DB3800414600B2FD
:101CD00009B28842AFDABDE8F18F38B504000D00D3
:101CE0002878002804D0FF2229002000FFF79CFF5D
:101CF000287E002805D0FF2215F118012000FFF7EB
:101D000093FF95F83000002805D0002215F130012E
:101D10002000FFF789FF31BD10B592B00400080024
:101D20006946FFF713FF69462000FFF7D6FF12B0A0
:101D300010BD30B595B0050045F620021100854C68
:101D4000230001290EDB13F01F004118BFF34F8F52
:101D500081480360203320390129F9DABFF34F8F1E
:101D6000BFF36F8F2869002812D068462969542272
:101D7000FFF7A4F9287D012803D102A9200000F073
:101D800080FE2B7D6A462100744801F08BF904E047
:101D90002100724D2800FFF781F921006F48FFF7FD
:101DA000BBFF15B030BD80B5C0B2002810D06C4963
:101DB0006C4801F0D7FB00280AD001206A4908705E
:101DC0004FF4D773694A6A49002001F0DFFD1FE034
:101DD000684B694A694959A001F0FFFA00280AD006
:101DE0000220614908704FF4DA73604A64490020A8
:101DF00001F0CCFD0CE003205B4908700020614934
:101E000008804FF4DD73594A5F49002001F0BEFDA0
:101E100001BD80B50120FFF7C6FF052001F012FECD
:101E20007823BC224D49022000F06BF901BD10B5AA
:101E300000F097F9002416E000202200D2B2885466
:101E400052482100C9B200EB810090ED000A200049
:101E5000C0B201F04BFE05E04D492000C0B2085C65
:101E60000028E9D1641C2000C0B20828F4DB10BDB2
:101E7000F8B507003C480178032912D041490A8887
:101E8000521C0A800A88C82A0AD300220A800078D5
:101E9000022801D0012000E00020C0B2FFF783FF3C
:101EA0004BE0FFF7C4FF3B480178491C0170017803
:101EB000052906D3002101703800FFF73AFF00F032
:101EC0002FF93C68BE683D69F868002801D0C178E8
:101ED00000E00021C9B23000FFF782FBF0EE402A9B
:101EE000002D02D095ED002A01E09FED152A002E6D
:101EF00002D0D6ED001A01E0DFED111A002C02D05D
:101F000094ED031A01E09FED0E1A002C06D094ED1B
:101F1000010ADFED0C0A60EE200A01E0DFED080A9D
:101F2000002C06D094ED000A9FED063A20EE030A3D
:101F300001E09FED030AFFF761FBF1BD5443500040
:101F400000000000E02E6542CC220928A40F0928D9
:101F500044070828246002285CEF00E084B70828C2
:101F6000E0892810488A2810B9240928908528106B
:101F700084882810588A2810508A281090892810A0
:101F8000A0882810B4240928588928105823092823
:101F900080240928BA2409280300002002E01A78C6
:101FA00010185B1C0A00511E002AF8D1C0B27047FD
:101FB0002DE9F84306000C001F005FF00008DFF871
:101FC0003802AA21017002214170002C01D00021A9
:101FD00000E00121089D730153EA01131A43827046
:101FE0000821C1708780C580DFF810920821D9F8D8
:101FF00000209047F6B2012E04D014D3032E0DD04A
:1020000007D310E0BFB2ADB26F43082097FBF0F8E2
:1020100009E0BFB2ADB26F43B84604E0BFB2ADB2A3
:102020006F437F00B846002C04D041462000D9F809
:1020300000209047BDE8F183F8B504000020DFF8E8
:10204000C00185888178890600D56D00DFF8AC6114
:10205000082132689047002720E03800C0B204EB26
:102060008000C068002808D0290089B23800C0B2BA
:1020700004EB8000C068326890473800C0B204EBBF
:102080008000C06A002808D0290089B23800C0B298
:1020900004EB8000C06A326890477F1C3800C0B2F1
:1020A0000828DADBF1BD38B50400607810F00F00C5
:1020B00060706078092801DA012000E00020C52264
:1020C000DFF84011C0B201F043FCAA20207065780F
:1020D000D5F10805AD00D5F12405E570607850F024
:1020E000100060700020A0702900C9B22000FFF726
:1020F00053FFA070EDB229002000404A12689047BB
:1021000031BD30B43E4CAA252570032565700825E5
:10211000E5703D4C20722160A280E38030BC7047A6
:1021200038B5394C207A002801D0012000E0002089
:102130004FF4BC723349C0B201F00AFC304DE08864
:102140000090A388AA7812F00F022168207AFFF786
:102150002FFFA87810F00F0F02D02000FFF76CFFC0
:1021600031BD78B5A1B0802101A8284A12689047F6
:1021700000900098002826D0009A01A9244801F078
:1021800038FD20E00120009017E001ADEE7800203E
:10219000E870082101A8FFF7FFFEF6B28642F1D1F0
:1021A0001C48A97800EB8100696840F8041C0120F4
:1021B0001949AA78114401F8010C00236A4601A9C3
:1021C000200001F0E6FD124C200001F001FD08287E
:1021D0000ED30820009001236A4601A9200001F0D7
:1021E000D8FD9DF804005528CFD001200090E4E7E9
:1021F00022B070BD000000007024092808070828DC
:10220000782409281C832810382209280C0708285C
:10221000F0060828582309288024092862F30F2291
:1022200062F31F42401810F0030308D0C91A1FD3ED
:10223000DB0748BF00F8012D28BF20F8022D13004E
:1022400030B414461546103928BF20E93C00FAD8AE
:10225000490728BF20E90C0048BF40F8042D890039
:1022600028BF20F8022D48BF00F8012D30BC704770
:10227000C91818BF00F8012DCB0728BF00F8012DA1
:102280007047C0B25F383D2801D2012000E0002035
:10229000C0B27047C0B22D381F2801D2012000E023
:1022A0000020C0B27047F8B504000F001500BC262E
:1022B000380080B270432044290089B2405CFFF7A7
:1022C000E0FF002801D100204AE0380080B2002859
:1022D0000ED0380080B270432044290089B20844EF
:1022E00010F8BC0CFFF7CDFF002801D0012037E02B
:1022F000380080B277280EDA380080B2704320446C
:10230000290089B2084490F8BC00FFF7BAFF002802
:1023100001D0012024E0280080B200280ED038002F
:1023200080B270432044290089B2084410F8010C9F
:10233000FFF7A7FF002801D0012011E0280080B29C
:10234000BB280CDABFB2774304EB0700ADB22844D8
:102350004078FFF796FF002801D0012000E0002020
:10236000F2BD010009B2002901D5002006E00100FC
:1023700009B2BC2901DBBB2000E000B2704730B4D9
:102380009B1A1C0024B2012C01DA00B20EE0BDF948
:10239000085009B2040024B2091B2DB212B2AA1AC5
:1023A00051431BB291FBF3F1081800B230BC7047E7
:1023B0005FF0FF3141808180C18001814181818155
:1023C000C1810182002181740021C1740021017545
:1023D000002141750021017070472DE9FF4FBFB00A
:1023E0005FF0FF345FF0FF35002600275FF0000844
:1023F000002101910021429A11705FF0FF31429A51
:1024000051805FF0FF31429A91800021429AD18140
:102410000021429A1161002115E05FF0FF32409BDC
:102420008C461FFA8CFC23F81C20419B8C461FFA1B
:102430008CFC23F81C20002203AB8C461FFA8CFC7A
:1024400023F81C20491C0A0092B2782AE5DB1221ED
:10245000ADF80010029022E04098BDF8001020F87E
:1024600011B0BDF802004199BDF8002021F812001A
:1024700003A8BDF8001020F811900BE0BDF9020090
:10248000B0EB0B00401C494689B2062902D380B24A
:102490001228E1D2BDF80000401CADF80000BDF8E4
:1024A00000005B2835D2BDF80000782831DA5FF0F3
:1024B000FF308346ADF802005FF000095FF0000ACC
:1024C00018E0584600B2002802D5D3460FFA8BFB1D
:1024D000504600B2ADF8020019F1010908E0524679
:1024E00092B2BDF800100298FFF7DDFE0028E8D197
:1024F0001AF1010A504680B2BC28F0DB584600B2FF
:10250000002805D45846BDF9021000B28842B5DB58
:10251000C0E7122022E0210009B200290BD4019962
:10252000B94208D2019742994C8042998D804299D4
:10253000CE8142990F615FF0FF352C000026002705
:102540005FF0000809E0210009B20029E3D4414608
:10255000C9B20229DFD218F10108401C010089B27A
:102560005B2931D2010089B278292DDA4099020025
:1025700092B231F9121000290DD44099020092B2A2
:1025800031F91210419A03009BB232F913209142A3
:1025900001DA012100E00021C9B20029D3D02100D5
:1025A00009B2002903D5040024B200260027050043
:1025B0002DB2761C03A9020092B231F8121017FA5C
:1025C00081F75FF00008C8E7200000B200280AD4B5
:1025D0000198B84207D24298448042988580429838
:1025E000C6814298076143B0BDE8F08FF0B4002582
:1025F0000026002417003FB2002F00D500221F0044
:102600003FB2782F00DB772318E017003FB230F994
:102610001770ED1917003FB231F91770F619641CE5
:102620000BE017003FB230F91770002F05D41700E8
:102630003FB231F91770002FE7D5521C1F009446A6
:102640003FB20FFA8CFC6745EBDA200080B200281D
:1026500001D1002010E00698059A049923009BB24E
:1026600095FBF3F30B80210089B296FBF1F1118009
:10267000002800D004800120F0BC70472DE9FF4104
:1026800006000F001400E0890C280CD320695028A4
:1026900009D3B4F90200002805D4B4F90200B4F952
:1026A0000410884201DB0020A7E0A58860882D1A6D
:1026B000280000B2122801DA00209EE05FF0050831
:1026C000280000B2042190FBF1F0414609B2884293
:1026D00004DA280000B2042190FBF1F8404600B271
:1026E000012801DA5FF001080020ADF80E0000209B
:1026F000ADF80C000DF10E00029014F108000190ED
:10270000A01D0090638818EB03031BB2B4F90220EC
:1027100039003000FFF76AFF002801D100206CE08B
:1027200003A8029014F10C00019014F10A0000902B
:10273000B4F90430A088B0EB0808424612B2390060
:102740003000FFF753FF002801D1002055E0BDF80D
:102750000E00032803D3BDF80C00032801D200208B
:102760004BE02189E088091AA2896089121A0800C1
:1027700000B2182803DB100000B2182801DA00208C
:102780003BE064236E2012FB00F011FB03F6B04225
:1027900001DA002031E0E0880A30B4F90A6000B2C2
:1027A000B04206DBB4F90C0026890A3E36B2B042CC
:1027B00001DA002021E0100000B200FA81F02DB211
:1027C00005FB00F56D080520454345F620008542D0
:1027D00001D2002011E0192011FB03F512FB00F6D5
:1027E000B54205DB12FB03F211FB00F0824201DA75
:1027F000002002E001202070012004B0BDE8F0813B
:102800002DE9FE4F0D000026002400275FF0000890
:102810002978002901D10020E0E0B5F9029001906B
:102820001AE00198BC2119FB01F10844594609B28C
:10283000405CFFF72FFD002804D0761C07FA89F7CB
:1028400008FA8BF81BF1010B5046594600B209B249
:102850008842E6DA19F10109B5F90400494609B2DE
:10286000884236DB484600B20090B5F90430B5F92D
:102870000220B5F90A10B5F90600FFF780FD83467E
:10288000484600B20090B5F90430B5F90220B5F918
:102890000C10B5F90800FFF772FD82461BF1020B20
:1028A000584600B2FFF75DFD8346BAF1020000B260
:1028B000FFF757FD82465846514600B209B288429A
:1028C000C8DA514609B2584600B2091A491C0C1917
:1028D000BAE7002C01D0232E01D200207EE0642133
:1028E00001FB06F10A204443A14201D2002075E019
:1028F000B7FBF6F4B8FBF6F6B5F90200B5F904102B
:102900000818022190FBF1F7380000B20090B5F9E9
:102910000430B5F90220B5F90A10B5F90600FFF741
:102920002EFD8046380000B20090B5F90430B5F9AC
:102930000220B5F90C10B5F90800FFF720FD41465B
:10294000020009B212B2914201DB002046E0010010
:1029500009B201FA88F1022291FBF2F100B20FFAFA
:1029600088F8B0EB0808022098FBF0F2B5F90430C3
:10297000B5F902001B1A022093FBF0F3232512FB8A
:1029800005F06422B0FBF2F013FB05F26423B2FB06
:10299000F3F203001BB2062B00DA062013001BB271
:1029A000052B00DA052233000D1A1BB22DB2AB4203
:1029B00004DB411809B236B2B14201DA00200DE061
:1029C0002000B91A00B209B2884204DBD7193FB21D
:1029D00024B2A74201DA002000E00120BDE8FE8F0A
:1029E00002000B0012B21BB29A4200DB080000B2D8
:1029F00070470A00030012B21BB29A4200DB0800C3
:102A000000B2704770B505000C00B5F90A10B5F9B1
:102A10000600FFF7E5FF0600B5F90C10B5F9080050
:102A2000FFF7E7FF6680A0806988E180A98821819F
:102A3000E98861812989A1816989E181A989218246
:102A40000121217036B2142E01DA012100E00021AB
:102A5000A17400B2A82801DB012000E00020E0748E
:102A6000B5F90200142801DA012000E000202075E9
:102A7000B5F90400642801DB012000E00020607546
:102A800070BD30B5FDB005000C00002C1BD020003F
:102A9000FFF78EFC002D16D06B4605AA41A9280031
:102AA000FFF79BFC6A4605A941A8FFF7E7FD002850
:102AB00009D069462800FFF7A3FE002803D02100B3
:102AC0006846FFF79FFF7DB030BD000030B40B00BB
:102AD0001BB2782B03D213001BB2BC2B00D310E027
:102AE000BC2311FB03F4044415002DB2645D802C5B
:102AF00001D3002400E0FF2411FB03F1084412B2CB
:102B0000845430BC7047F8B505000E0017001C0057
:102B10002000390000B209B2884202DA38002700EA
:102B2000040007E03A0012B2310009B22800FFF7B2
:102B3000CDFF7F1C2000390000B209B28842F1DAD3
:102B4000F1BDF8B505000E0017001C00200039008B
:102B500000B209B2884202DA38002700040007E018
:102B6000320012B2390009B22800FFF7AFFF7F1C14
:102B70002000390000B209B28842F1DAF1BD01004B
:102B800009B2002902D500B24042FFE700B2704707
:102B90002DE9F84F83460F0014009846BDF8280031
:102BA000001B00B2FFF7EBFF05002000BDF9281065
:102BB00000B2884201DA012601E05FF0FF36ADF88D
:102BC0000080BDF80000C01B00B2FFF7D8FF8046B0
:102BD000D8F100083800BDF9001000B2884202DACE
:102BE0005FF0010901E05FF0FF3918EB050A13E01F
:102BF0005FEA4A000100424609B212B2914202DB8A
:102C000018EB0A0A3419290009B200B2814203DB29
:102C100015EB0A0A19EB0707220012B2390009B2B4
:102C20005846FFF753FF3800BDF9001000B2884244
:102C3000DED12000BDF9281000B28842D8D1BDE80D
:102C4000F18F2DE9F04106000F0014001D0028004F
:102C5000210000B209B2884202DA20002C000500EF
:102C6000A0460CE0B8EB0400400706D4424612B27E
:102C7000390009B23000FFF729FF18F101082800D8
:102C8000414600B209B28842ECDABDE8F0812DE994
:102C9000F04106000F0014001D002800210000B2C2
:102CA00009B2884202DA20002C000500A0460CE0A0
:102CB000B8EB0400400706D43A0012B2414609B20C
:102CC0003000FFF703FF18F101082800414600B269
:102CD00009B28842ECDABDE8F081F8B504000D00D5
:102CE00016001F00BB191BB2F21B12B2290009B259
:102CF0002000FFF708FF7B191BB2ED1B2A0012B260
:102D0000310009B22000FFF71CFFF1BD38B5050006
:102D10000C002078002800F00181B4F9060000289A
:102D200064D4B4F90800002860D4B4F90A0000287B
:102D30005CD4B4F90C00002858D4B4F90E00002873
:102D400054D4B4F91000002850D4B4F90C00009009
:102D5000B4F90630B4F90A20B4F906102800FFF7D8
:102D600017FFB4F910000090B4F90830B4F90E2040
:102D7000B4F908102800FFF70BFFB4F90E0000901B
:102D8000B4F90830B4F90A20B4F906102800FFF7A6
:102D9000FFFEB4F910000090B4F90830B4F90C202B
:102DA000B4F906102800FFF7F3FE0423B4F90A2053
:102DB000B4F906102800FFF790FF0423B4F90C20A3
:102DC000B4F906102800FFF788FF0423B4F90E2099
:102DD000B4F908102800FFF780FF0423B4F910208D
:102DE000B4F908102800FFF778FF97E0B4F9020063
:102DF000002811D4A07C002807D077230022B4F942
:102E000002102800FFF743FF06E077230022B4F901
:102E100002102800FFF795FEB4F90400002811D431
:102E2000E07C002807D077230022B4F904102800A2
:102E3000FFF72DFF06E077230022B4F904102800E5
:102E4000FFF77FFEB4F90600002811D4207D00288A
:102E500007D0BB230022B4F906102800FFF7F1FECB
:102E600006E0BB230022B4F906102800FFF74BFE52
:102E7000B4F90800002811D4607D002807D0BB23D6
:102E80000022B4F908102800FFF7DBFE06E0BB23A0
:102E90000022B4F908102800FFF735FEB4F902004B
:102EA00000280BD4B4F90600002807D40423B4F991
:102EB0000220B4F906102800FFF70FFFB4F9040050
:102EC00000280BD4B4F90600002807D40423B4F971
:102ED0000420B4F906102800FFF7FFFEB4F9020041
:102EE00000280BD4B4F90800002807D40423B4F94F
:102EF0000220B4F908102800FFF7EFFEB4F904002F
:102F000000280BD4B4F90800002807D40423B4F92E
:102F10000420B4F908102800FFF7DFFE31BD0000DF
:102F20002DE9F04104000D002878002872D0BB2361
:102F300000223C212000FFF7E6FDBB230022642194
:102F40002000FFF7E0FD5026002712E00423424650
:102F500012B2310009B22000FFF7BFFE08E00423DF
:102F60001BB2424612B2310009B22000FFF7B5FE93
:102F70007F1C38002978C0B2884241D23800C0B2E4
:102F800005EB4000B0F9028064233C22414609B2BF
:102F90002000FFF7D6FD95ED070AFFEE000AB4EE1C
:102FA000600AF1EE10FAD1DB404600B200EE100AE2
:102FB000B8EEC00ADFED180A30EE200ADFED170A7E
:102FC00080EE200AD5ED070A9FED151A70EE810AF2
:102FD000F4EE400AF1EE10FA0CD5D5ED070A9FED9C
:102FE000111A70EE810AB4EE600AF1EE10FA01D502
:102FF000012000E00020C0B20028B0D00823AFE7D5
:1030000095F82000002805D077236E225E2120004D
:10301000FFF797FDBDE8F0810000BCC20000BC4294
:10302000CDCC4CBDCDCC4C3DF8B505000C00207886
:10303000002836D0BB230022B4F902102800FFF785
:1030400062FDBB230022B4F904102800FFF75BFDEA
:1030500094ED020AF2EE040A80EE200ABDEEC00AE8
:1030600010EE106A3000C0B2002800D101263000F6
:10307000C0B2092800D3082600270CE0082300224C
:103080006088811E3800C0B2B1EB800109B228000F
:10309000FFF739FD7F1C38003100C0B2C9B2884249
:1030A000ECD3F1BDF8B5050014001E00002D03D0CF
:1030B000002901D0002C00D11FE045F620022F008E
:1030C0003800FDF7EBFFF6B2012E04D015D3032E26
:1030D0000DD006D311E014F108012800FFF716FE09
:1030E0000BE014F130012800FFF71AFF05E014F19E
:1030F00020012800FFF798FFFFE7F1BD38B5040075
:10310000002564204443142001F047F8002805D12D
:103110000A2001F04BF96D1CA542F4D3A54201D35E
:10312000012000E00020C0B232BD38B514001D00FF
:103130000822DFF8C8341A60002805D089B20A00D6
:103140000100002001F066FC002C05D0ADB22A0081
:103150002100002001F05EFC0820DFF8A4140860C4
:1031600031BD38B504000D000820DFF89014086068
:10317000042322002100002001F0B4FC280080B2CA
:10318000002806D0ADB22B00221D211D002001F029
:10319000A9FC0820DFF86814086031BDF8B5040008
:1031A0000D0016000820DFF8541408600220287073
:1031B0006E8004232A002900002001F093FC3000D7
:1031C00080B221280EDB20232A1D2100002001F0DF
:1031D00089FCB6B2203E320014F12001002001F03B
:1031E00019FC0CE0B6B22F1D320021003800FDF7AB
:1031F00055FF20232A1D291D002001F073FC082003
:10320000DFF8FC130860F1BDF8B50D0016001F00D3
:1032100001248DF80000ADF802603800FFF76EFF62
:1032200000281ED133009BB22A0004216846FFF714
:103230007CFF3800FFF762FF002812D102208DF8D2
:1032400000000020ADF80200BDF802106846FFF74C
:1032500088FF142001F0AAF89DF80000802800D112
:1032600000242000C0B2F2BDF8B504000D00160025
:1032700001273000FFF742FF002814D12C700023F3
:10328000002220212800FFF750FF3000FFF736FF13
:10329000002808D102202870002068802021280002
:1032A000FFF75FFF00273800C0B2F2BD30B589B02C
:1032B0004FF47A7269462020FFF7D6FF0400200001
:1032C000C0B200280BD19DF80000A02807D1BDF89E
:1032D000022001A9DFF82C532800FDF7DFFEE4B23D
:1032E000002C07D19DF80000A02801D0012002E0A9
:1032F000002000E00120C0B209B030BD30B589B077
:103300004FF47A7269462120FFF7AEFF04002000D7
:10331000C0B200280BD19DF80000A12807D1BDF84C
:10332000022001A9DFF8E0522800FDF7B7FEE4B261
:10333000002C07D19DF80000A12801D0012002E057
:10334000002000E00120C0B209B030BD30B589B026
:103350004FF47A7269462220FFF786FF04002000AE
:10336000C0B200280BD19DF80000A22807D1BDF8FB
:10337000022001A9DFF894522800FDF78FFEE4B285
:10338000002C07D19DF80000A22801D0012002E006
:10339000002000E00120C0B209B030BD10B590B0EF
:1033A00002000B00002B05D09949684601F06EFD24
:1033B000020004E09749684601F068FD020042F20D
:1033C000107392B269461020FFF71EFF0400FFF74A
:1033D000BDFF2000C0B210B010BD18B58DB0019374
:1033E00000920B0002008C4902A801F04FFD020080
:1033F0004CF2503392B202A91120FFF705FF0400EE
:10340000FFF7A4FF2000C0B20EB010BDF0B589B028
:1034100006000C00814D2878002858D10120287022
:103420001CE03A0092B269463000FFF7B7FE9DF803
:103430000000902803D09DF80000912809D1BDF824
:103440000200002805D0BDF8022001A9744800F050
:10345000D0FB380080B2241ABFB23E44002C2AD0E0
:1034600040F6F970844202D340F6F87700E0270076
:103470004FF47A70FFF742FE0028D2D01BE0022002
:103480008DF800000020ADF8020020216846FFF70B
:1034900068FE9DF80000902803D09DF80000912858
:1034A00009D1BDF80200002805D0BDF8022001A90D
:1034B0005B4800F09EFB9DF80000902805D14FF47A
:1034C0007A70FFF71BFE0028D9D00020287020005A
:1034D00009B0F0BD38B58AB004000D00002C01D051
:1034E000012000E000204FF40E724E49C0B200F0FF
:1034F0002FFA0095494D287800282AD101202870FC
:103500004FF47A70FFF7FAFD002820D102208DF8E1
:1035100004000020ADF80600202101A8FFF721FEDD
:103520009DF80400902803D09DF80400912809D14B
:10353000BDF80600002805D0BDF8062002A93848CD
:1035400000F057FB9DF804009028D9D0FFE7002039
:10355000287000236A462100314800F01AFC0098C8
:103560000BB030BD3EB504000D0000204FF4806369
:103570002D4A00212A4800F0BFFD082002900020BB
:103580000190002000900023284A0021002001F033
:1035900016FB032301220121132000F00FFE032359
:1035A00001220121B82000F009FE0223002200219F
:1035B000142000F003FE0021B82000F0CCFD0A200A
:1035C00000F01FFF0121B82000F0C5FD642000F0CD
:1035D00018FF002011490870FFF768FE0100C9B20A
:1035E000002909D1FFF78AFE29002000FFF7D6FE47
:1035F0000100C9B20029FFD1C0B23EBD0401314073
:103600000801314064240928502409287823092816
:10361000108A2810688A28106C892810C324092869
:10362000F423092814852810A81A092880969800E0
:1036300082B000200190002000900020019009E05D
:103640000098401C00900098B0F5005FF8D30198F6
:10365000401C01900198B0F5805F02D200200090DC
:10366000F1E702B0704780B50100002001F06FFC67
:1036700001BD2DE9F043ADF5137D07008846160026
:103680001C000020ADF802000020ADF80000002072
:1036900002900020ADF804000020ADF8060040467E
:1036A000FDF7B4FC0290DFF868532888002801D0A9
:1036B00028698047DFF85C030078002800F0338138
:1036C0002888002800F01181BDF90600411CADF8E2
:1036D00006103A00010089B20020EB68984747467F
:1036E0004046FDF793FC02906888A97990FBF1F0C1
:1036F000ADF804003800471C00780028FAD10020FB
:10370000ADF800000EE07F1E38782F2802D0387800
:103710005C2804D1BDF80000401CADF80000029800
:10372000401E0290BDF80000022802DA029800282C
:10373000E9D50298002806D47A1CDFF8DC1253A8D9
:1037400001F0A4FB0EE0BDF80000002805D13A000E
:10375000B24953A801F09AFB04E03A00AE4953A8DD
:1037600001F094FB0020ADF8020042E0BDF800102B
:10377000BDF80020BDF8023053AF9BB2BDF9040084
:10378000434313FA82F0385C43AA89B25054BDF81F
:103790000000401CADF80000BDF8000080B2BDF98B
:1037A000041088420EDA53A8FDF730FCBDF8002063
:1037B000BDF802309BB2BDF904104B4313FA82F1FD
:1037C0008842D3D2002043A9BDF800208854BDF917
:1037D0000600411CADF8061043AAE97911FB00F17F
:1037E00089B20020EB689847BDF80200401CADF894
:1037F0000200BDF8027053A8FDF708FCBDF90410E3
:10380000B0FBF1F0401CBFB2874203D20020ADF8FC
:103810000000C1E73200824953A801F037FBBDF92F
:103820000600411CADF8061053AAE97911FB00F11E
:1038300089B20020EB689847002C74D00020ADF8C6
:10384000020041E0BDF80010BDF80020BDF80230D4
:103850009BB2BDF90400434313FA82F0205C43AAF3
:1038600089B25054BDF80000401CADF80000BDF80E
:10387000000080B2BDF9041088420EDA2000FDF786
:10388000C5FBBDF80020BDF802309BB2BDF90410A5
:103890004B4313FA82F18842D4D2002043A9BDF8E9
:1038A00000208854BDF90600411CADF8061043AA5B
:1038B000E97911FB00F189B20020EB689847BDF867
:1038C0000200401CADF80200BDF802602000FDF7C8
:1038D0009DFBBDF90410B0FBF1F0401CB6B286426E
:1038E00021D20020ADF80000C1E74FF48071002222
:1038F0000DF10C094846FEF791FC3800A96888478D
:10390000002C07D0009433004246464903A801F03A
:10391000BDFA05E033004246434903A801F0B6FA78
:1039200003A8A96888470DF5137DBDE8F08380B52D
:103930000A000100002001F0FBFA002002BD02B5E0
:10394000010000236A46394800F023FA009802BDBE
:1039500038B50C001500C0B2002803D134480078F7
:10396000002800D131BD33490878002800D0FEE797
:103970000878401C087001F00FFB00232A0021008A
:103980002D48FFF776FEFFF753FEF6E710B514005B
:103990001A00C0B2002808D11E480078002804D0C0
:1039A0000B0021002548FFF764FE10BD00210180B7
:1039B0004FF6FF7141808180FF218171C17100212B
:1039C00081600021C16000210161704710490288B7
:1039D0000A8042884A8082888A8082798A71C27984
:1039E000CA7182688A60C268CA6000690861012081
:1039F00008490870704700B585B06846FFF7D6FFE4
:103A00000F4802906846FFF7E1FF05B000BD0000D7
:103A10003C240928BD240928EC892810B0892810E5
:103A2000F8892810BC88281040892810C423092848
:103A300042070828BE240928C0892810048A2810B3
:103A400067362810C0B200280AD001280FD00328FA
:103A500014D0042819D005281ED0062823D022E02F
:103A60001148124908601248124908601BE01248C8
:103A70000E49086011480F49086014E010480B49CE
:103A8000086010480B4908600DE00F4807490860BE
:103A90000E480849086006E00D48044908600D48D2
:103AA00004490860FFE770472F39281008070828E5
:103AB0003F3928100C070828D57F28103980281096
:103AC0003D7F2810A17F2810997728109178281021
:103AD0000D342810D5342810704780B50F490120C7
:103AE00001F0ACFA01200E49087001BD80B50C4907
:103AF0000978002903D00100C9B2082900DB0BE0D6
:103B00008DED000AC0B20749084301F072FA00289F
:103B100002D1009801F06DFA01BD0000D93A2810D9
:103B2000BB2409280000445282688918816003E0A0
:103B300082684169521A8260816842699142F7D273
:103B40007047C2688918C16003E0C2684169521AAF
:103B5000C260C16842699142F7D2704770B50400F3
:103B6000002C01D0012000E000205422DFF8C41511
:103B7000C0B2FFF7EDFE0025207850F00100207064
:103B80000020A0600020E06060692061607800286B
:103B900003D0022810D007D315E0616900226668BF
:103BA0003000FEF73BFB0EE06169490000226668C9
:103BB0003000FEF733FB06E0616989000022666889
:103BC0003000FEF72BFB002020702800C0B270BD33
:103BD00010B50400002C01D0012000E0002070226C
:103BE000DFF85015C0B2FFF7B3FE60692169401AD3
:103BF00010BD2DE9F84305001600002D01D001206D
:103C000000E000200C00AA22DFF82815C0B2FFF760
:103C10009FFE00270020002C01D10327B5E0287863
:103C200010F0050F01D00427AFE0287850F0040011
:103C300028702869B042C0F0A380D5F81480A86825
:103C4000B8EB0008B04567D26878002803D0022896
:103C500041D01FD390E0424621006868AB6800EB7A
:103C600003094846FDF71AFA41462800FFF75CFFB2
:103C7000B6EB080204EB08016868AB6800EB0304CC
:103C80002000FDF70BFAB6EB080841462800FFF7C5
:103C90004BFF71E05FEA480221006868AB6800EB07
:103CA00043094846FDF7FAF941462800FFF73CFF73
:103CB000B6EB0802520004EB48016868AB6800EB01
:103CC00043042000FDF7EAF9B6EB08084146280056
:103CD000FFF72AFF50E05FEA880221006868AB68BE
:103CE00000EB83094846FDF7D9F941462800FFF764
:103CF0001BFFB6EB0802920004EB88016868AB6812
:103D000000EB83042000FDF7C9F9B6EB0808414633
:103D10002800FFF709FF2FE06878002803D0022869
:103D20001DD00ED328E0320021006868AB6800EB9C
:103D300003042000FDF7B2F931002800FFF7F4FE7C
:103D40001AE0720021006868AB6800EB43042000B1
:103D5000FDF7A4F931002800FFF7E6FE0CE0B20001
:103D600021006868AB6800EB83042000FDF796F93A
:103D700031002800FFF7D8FE2869861B2E6100E07D
:103D80000527287810F0FB0028703800C0B2BDE885
:103D9000F2832DE9F04705000E001F00002D01D031
:103DA000012000E000201400DFF8888340F25B125D
:103DB0004146C0B2FFF7CCFD002C01D0012000E04D
:103DC00000204FF4AE724146C0B2FFF7C1FD5FF074
:103DD000000800200020002E02D15FF003088BE0D5
:103DE000297811F0030F03D020605FF006089CE0F3
:103DF0002800FFF7EDFE2168884209D220605FF0BD
:103E00000708002804D1287810F0F70028708CE00B
:103E1000287850F008002870D5F81490E868B9EBBD
:103E200000092068814522D36878002803D0022841
:103E300013D008D35CE022686868E9680144300068
:103E4000FDF72CF954E0226852006868E96800EB3D
:103E500041013000FDF722F94AE0226892006868CB
:103E6000E96800EB81013000FDF718F940E068785F
:103E7000002803D0022827D011D339E04A466868C9
:103E8000E9680144B2465046FDF708F92268B2EBF2
:103E9000090269684E443000FDF700F928E05FEA46
:103EA00049026868E96800EB4101B2465046FDF7F7
:103EB000F5F82268B2EB09025200696806EB490680
:103EC0003000FDF7EBF813E05FEA89026868E96803
:103ED00000EB8101B2465046FDF7E0F82268B2EBF4
:103EE00009029200696806EB89063000FDF7D6F8F2
:103EF000287810F0F7002870FFB2002F15D128782D
:103F00000B2802D15FF002080FE0287850F0020081
:103F1000287021682800FFF714FE296920684118DD
:103F20002961287810F0FD0028704046C0B2BDE835
:103F3000F0872DE9F04705000E001F00002D01D08D
:103F4000012000E000201400DFF8E8814FF4DF7268
:103F50004146C0B2FFF7FCFC002C01D0012000E07C
:103F6000002040F2BF124146C0B2FFF7F1FC5FF003
:103F7000000800200020002E02D15FF00308ABE013
:103F8000297811F0070F03D020605FF00608AFE03A
:103F90002800FFF71DFE2168884209D220605FF0EB
:103FA0000708002804D1287810F0F70028709FE057
:103FB000287850F008002870E868A968884203D380
:103FC000A8682168884228D36878002803D002288E
:103FD00017D00AD37CE022686968AB6820681B1A96
:103FE00019443000FDF75AF872E0226852006968FF
:103FF000AB6820681B1A01EB43013000FDF74EF857
:1040000066E0226892006968AB6820681B1A01EBC1
:1040100083013000FDF742F85AE0D4F80090A86818
:10402000B9EB00096878002803D0022835D018D3EE
:104030004EE04A4668686969B1EB09010144B2463D
:104040005046FDF72BF82268B2EB09026968AB68AD
:1040500020681B1A194406EB09042000FDF71EF81E
:1040600036E05FEA490268686969B1EB090100EB73
:104070004101B2465046FDF711F82268B2EB090241
:1040800052006968AB6820681B1A01EB430106EB1C
:1040900049042000FDF702F81AE05FEA8902686827
:1040A0006969B1EB090100EB8101B2465046FCF7AA
:1040B000F5FF2268B2EB090292006968AB682068DC
:1040C0001B1A01EB830106EB89042000FCF7E6FFD5
:1040D000287810F0F7002870FFB2002F08D1287858
:1040E0000B2802D15FF0020802E02800FFF736FD3E
:1040F0004046C0B2BDE8F087F8B504000E001700D6
:104100001D00002C01D0012000E000204FF40772B8
:104110000849C0B2FFF71CFC002067600021217035
:1041200066700021A1600021E16025616561C0B277
:10413000F2BD0000088628100069C84010F0010098
:104140007047012212FA01F181607047012212FAD0
:1041500001F14160704780B5C9B200290ED001005D
:10416000C9B2082291FBF2F302FB1311354AC0B227
:10417000C010C0011044FFF7E4FF0DE00100C9B218
:10418000082291FBF2F302FB13112E4AC0B2C010B9
:10419000C0011044FFF7DAFF01BD80B50100C9B2CC
:1041A000082291FBF2F302FB1311264AC0B2C010A1
:1041B000C0011044FFF7C0FFC0B202BD2DE9F841B5
:1041C0008DB004000E0015001F0034210022E846C7
:1041D0004046FEF723F8F6B2002E0ED1FFB2002FB4
:1041E00002D0022F03D005E00F2001900DE008203F
:1041F00001900AE00820019007E0FFB2042F02D1ED
:104200000F20019001E00E2001902000C0B2C028D4
:104210000FD02100C9B208206A4691FBF0F300FBE1
:10422000131108482300DBB2DB10DB01184400F057
:10423000CAFF2900C9B22000C0B2FFF78CFF0EB040
:10424000BDE8F08100003140022801D301200FE0D9
:104250000B00DBB2042B01DB012009E0AA4B03EBCE
:104260008000C9B2405C824201D3012000E00020FE
:104270007047F8B506000F0015001C00022E01D390
:1042800001201CE02A003900C9B23000FFF7DCFF32
:10429000012801D1012012E03800C0B2002811D15C
:1042A000B4F5807F0CD299487603304400EB85004A
:1042B00010F58050016864F30F2101600020F2BD09
:1042C0000120FCE7FFB2012F10D1B4F5803F0BD2E3
:1042D0008E487603304400EB850010F5A05001684D
:1042E00064F317210160E9E70120E8E70120E6E730
:1042F00000B20012C0B27047F8B505000E001700FA
:10430000280000B2FFF7F4FF04002000C0B202282A
:1043100001D3012023E03A003100C9B22000C0B22D
:10432000FFF792FF012801D1012018E07749200012
:10433000C0B2400308442A00D2B200EB8200D0F899
:10434000000CF6B266F3092067F30700E4B26403D9
:104350002144EDB201EB8501C1F8000C0020F2BD53
:1043600070B504000D001600022C01D301201CE0E2
:1043700032002900C9B22000FFF766FF012801D1F1
:10438000012012E061496003085850F0004050F0ED
:10439000407050F47F00EDB265F3092066F307002A
:1043A0006203885064030859002070BDF8B5060008
:1043B000F600574C574D00212078C001284401F0E9
:1043C00006F812E02078C001284401F002F8B84253
:1043D000F8D32078C001284400F0FBFF361A0021F2
:1043E0002078C001284400F0F2FF4CF25137BE4261
:1043F000E8D22078C001284400F0EBFF8642F8D2D2
:10440000F1BDF8B504004FF4FA504443404D414E1D
:1044100000212878C001304400F0D9FF14E028784A
:10442000C001304400F0D5FFB842F8D33A4F3C19F0
:104430002878C001304400F0CCFF3F1839002878BC
:10444000C001304400F0C3FF4CF25137BC42E6D209
:104450002878C001304400F0BCFF8442F8D2F1BD9E
:1044600038B594B0502100226C462000FDF7D6FEEE
:104470002A4C00220121B4F90000FFF73DFFB4F9F6
:104480000000FFF735FF092300220121C0B2FFF72A
:10449000F0FEB4F90000FFF72BFF00220121C0B2AB
:1044A000FFF75EFF5FF0FF30009000208DF8040002
:1044B00000208DF8050000208DF8060000208DF802
:1044C000080003208DF844000120129001208DF88F
:1044D00007000F4C0F4D69462078C001284400F0BA
:1044E000B1FE2078C001284400F06CFF0021207844
:1044F000C001284400F06BFF2078C001284400F080
:104500006AFF15B030BD0000408A2810000004404A
:104510004307082800005940B03CFFFF4007082827
:10452000D0F80803C005C00D704710F541710A6846
:1045300052F480320A6010F541710A6832F4803218
:104540000A60D0F804037047C0F840127047D0F8F2
:104550000802C005C00D7047D0F80802C0F3C03093
:10456000704738B505002800FFF7F1FF0400280068
:10457000FFF7F2FF0419002C01D1012000E0002018
:10458000C0B232BD0068C0F38130002801D1802064
:1045900000E040207047016851F000410160704721
:1045A0002030026861F39B620260704780B5FFF7BC
:1045B000B7FF02BD80B5FFF7B8FF01BD022801D3E8
:1045C000012010E00B00DBB2042B01DB01200AE02C
:1045D000DFF8F83403EB8000C9B2405C824201D3BB
:1045E000012000E000207047F8B504000F0015001E
:1045F0001E00022C01D301202AE02A003900C9B292
:104600002000FFF7DBFF012801D1012020E0069800
:104610003900C9B202291ED1B6F5803F19D220282F
:1046200017D24FF4C052DFF8A81463030B4403EB16
:10463000850313441F6866F317271F606403214432
:1046400001EB850111440A6860F3C7020A6000208B
:10465000F2BD0120FCE7FFB2032F1FD1B6F1807F2E
:104660001AD2202818D24FF4E052DFF86414630302
:104670000B4403EB850313441F6807F0FF0757EA59
:1046800006271F606403214401EB850111440A6879
:1046900060F3C7020A60DAE70120D9E70120D7E713
:1046A00000B20012C0B27047F8B505000E00170046
:1046B000280000B2FFF7F4FF04002000C0B2022877
:1046C00001D3012024E03A003100C9B22000C0B279
:1046D000FFF774FF012801D1012019E0DFF8F01382
:1046E0002000C0B2400308442A00D2B200EB82008E
:1046F000D0F8000CF6B266F3092067F30700E4B2C5
:1047000064032144EDB201EB8501C1F8000C0020E7
:10471000F2BD70B504000D001600022C01D301207B
:104720001DE032002900C9B22000FFF747FF012831
:1047300001D1012013E0DFF898136003085850F00E
:10474000004050F0407050F47F00EDB265F3092056
:1047500066F307006203885064030859002070BDA7
:104760000100C020C9B2002905D0022907D004D316
:10477000032906D006E0122004E0622002E07A203D
:1047800000E01A20C0B270470100C020C9B2002961
:1047900005D0022907D004D3032906D006E0112052
:1047A00004E0612002E0792000E01920C0B27047E7
:1047B0000100C020C9B2002905D0022907D004D3C6
:1047C000032906D006E0102004E0602002E07820F3
:1047D00000E01820C0B270470100C020C9B2002913
:1047E0000BD002290DD00AD304290ED00BD30629F1
:1047F0000FD00CD307290ED00EE013200CE01420AC
:104800000AE0632008E0642006E07B2004E0292021
:1048100002E01B2000E01C20C0B270470100002015
:10482000C9B2002905D0022907D004D3032906D034
:1048300006E0132004E0132002E0132000E0132020
:10484000C0B2704701000020C9B2002905D002297A
:1048500007D004D3032906D006E0132004E0132078
:1048600002E0132000E01320C0B2704701000020D6
:10487000C9B2002905D0022907D004D3032906D0E4
:1048800006E0132004E0132002E0132000E01320D0
:10489000C0B2704701000020C9B200290BD0022924
:1048A0000DD00AD304290ED00BD306290FD00CD378
:1048B00007290ED00EE013200CE013200AE013208D
:1048C00008E0132006E0132004E0132002E0132088
:1048D00000E01320C0B27047C9B2082902D01029E5
:1048E00046D096E0DFF8EC110200D2B251F8222057
:1048F000126832F440420300DBB251F823301A60F0
:104900000200D2B251F82220D2F8002252095201FC
:104910000300DBB251F82330C3F800220200D2B208
:1049200051F82220D2F8002252F007020300DBB235
:1049300051F82330C3F800220200D2B251F82220ED
:10494000D2F80023520952010300DBB251F82330A0
:10495000C3F800230200D2B251F82220D2F800237B
:1049600052F00702C0B251F82000C0F8002350E016
:10497000DFF860110200D2B251F82220126832F43E
:1049800040420300DBB251F823301A600200D2B279
:1049900051F82220126852F480420300DBB251F831
:1049A00023301A600200D2B251F82220D2F800223D
:1049B000520952010300DBB251F82330C3F8002240
:1049C0000200D2B251F82220D2F8002252F00F0297
:1049D0000300DBB251F82330C3F800220200D2B248
:1049E00051F82220D2F80023520952010300DBB211
:1049F00051F82330C3F800230200D2B251F822202C
:104A0000D2F8002352F00F02C0B251F82000C0F8D3
:104A1000002370472DE9F84307000D00140008211A
:104A20003800C0B2FFF758FFDFF8AC603800C0B202
:104A3000305C08280FD03800C0B2305CC010DFF8FE
:104A40009C1011EBC01101203A00D2B2B25C12F0FE
:104A5000070290400860DFF87C8029783800C0B2F7
:104A600058F82000FFF770FD6D1C3800C0B258F8F0
:104A70002000FFF787FD81463800C0B258F82000BB
:104A8000FFF765FD8145F0D0641E002CE3D13800AE
:104A9000C0B258F82000FFF764FD0028F7D03800B6
:104AA000C0B2305C08280ED03800C0B2305CC010F4
:104AB000DFF82C1011EBC0110120FFB2F25D12F0F3
:104AC000070290400860BDE8F1830000408A28108A
:104AD0000000044014070828AC24092804003140D1
:104AE000080031402DE9F84380460D0016001C00F7
:104AF00008214046C0B2FFF7EFFEDFF8747340466E
:104B0000C0B2385C08280FD04046C0B2385CC01034
:104B1000DFF8601311EBC01101204246D2B2BA5C3B
:104B200012F0070290400860DFF84C934046C0B294
:104B300059F82000FFF73AFD002805D04046C0B2E2
:104B400059F82000FFF736FD29784046C0B259F8E1
:104B50002000FFF7F9FC6D1C4046C0B259F8200058
:104B6000FFF7FFFC0028F7D04046C0B259F82000FC
:104B7000FFF71CFD0028F7D04046C0B259F82000CE
:104B8000D0F840033070761C641E002CDCD1404607
:104B9000C0B2385C082810D04046C0B2385CC010A3
:104BA000DFF8D81211EBC01101205FFA88F817F86E
:104BB000082012F0070290400860BDE8F1832DE95B
:104BC000F84F2DED028B9EB006000F009946042091
:104BD00080B202FB00F2AA48B0FBF2F8A84802FB40
:104BE000180000EE100AB8EE400B01EE102AB8EEE5
:104BF000411B80EE010BBFEEED0B10EE100B08EE2B
:104C0000100A3421002201AC2000FDF707FB3C21F3
:104C100000220EAC2000FDF701FB30004946C0B277
:104C2000C9B2884201D1012000E000202A9DDFF8AE
:104C300054A24FF470725146C0B2FEF789FE484646
:104C40002900C0B2C9B2884201D1012000E0002091
:104C50002B9C40F2C1325146C0B2FEF779FE0620CD
:104C600002902800C0B2FFF7EDFD8DF80C0028007F
:104C7000C0B2FFF789FD82465FF0080B2800C0B282
:104C8000FFF782FD804D01AA9AFBFBF10BFB11AAF5
:104C90005146C0B2C010C001284400F094FA06206A
:104CA00002904846C0B2FFF7B9FD8DF80C004846A7
:104CB000C0B2FFF755FD82465FF0080B4846C0B210
:104CC000FFF74EFD01AA9AFBFBF10BFB11AA51461F
:104CD000C0B2C010C001284400F075FA2000C0B274
:104CE00004281ED0082002902000C0B2FFF7BEFDAD
:104CF0008DF80C002000C0B2FFF75AFD81465FF02E
:104D0000080A2000C0B2FFF753FD01AA99FBFAF18F
:104D10000AFB11994946C0B2C010C001284400F0F6
:104D200052FA2C9C2000C0B208281ED00620029007
:104D30002000C0B2FFF7AEFD8DF80C002000C0B21D
:104D4000FFF74AFD81465FF0080A2000C0B2FFF776
:104D500043FD01AA99FBFAF10AFB11994946C0B239
:104D6000C010C001284400F02EFA3000C0B2032861
:104D700003D23000C0B2401C00E000203200D2B2AA
:104D8000D21D032110F58F7000B2FFF78DFC3000AB
:104D9000C0B2032803D23000C0B2401C00E00020A3
:104DA00010F58F7000B2FFF77BFC8DED008AB8F133
:104DB000010843463200D2B2D21D0321C0B2FFF730
:104DC00013FC3000C0B2032803D23000C0B2401C34
:104DD00000E0002010F58F7000B2FFF761FC320098
:104DE000D2B2D21D0321C0B2FFF793FCFFB2002F55
:104DF00005D0022F09D005D3032F09D00AE00020E7
:104E0000109007E00120109004E00220109001E0D3
:104E10000320109001200E9000200F90042011908C
:104E2000082012900820139001208DF850000120D6
:104E30008DF85300104D00220EA93000C0B255F875
:104E4000200000F0CFFA00213000C0B255F8200059
:104E5000FFF7A6FB3000C0B255F82000FFF79BFB20
:104E60000348F6B284551EB0BDEC028BBDE8F18F4D
:104E7000AC240928040031401407082808003140F8
:104E800000B4C40480862810000031400CB430B552
:104E900083B00A4606A902910446002501940095B4
:104EA00002AB01A9084878441E30FBF7ECF8019AE0
:104EB000157000284EBF04460198041B204603B01D
:104EC00030BC5DF80CFB00BFFBC0FFFFC0F8401218
:104ED0007047D0F80802C005C00D7047D0F808022E
:104EE000C0F3C030704738B505002800FFF7F1FF68
:104EF00004002800FFF7F2FF0419002C01D1012063
:104F000000E00020C0B232BD38B50400DFF85C50CC
:104F1000C9B22000C0B255F82000FFF7D7FF20002B
:104F2000C0B255F82000FFF7DEFF0028F7D031BDF2
:104F300070B505000E00140006E031782800C0B2FC
:104F4000FFF7E2FF641E761C002CF6D170BD38B569
:104F500004000D0005E029782000C0B2FFF7D4FF5F
:104F60006D1C28780028F6D131BD000024070828E0
:104F7000002800D162B607480168491C01607047EB
:104F800072B604490868002802D00868401E08600C
:104F900008687047A824092880B5FFF7F1FF00F0E2
:104FA00019FB01BD010009B2002908D4012210F04B
:104FB0001F018A40364900B2400941F8202070475D
:104FC000010009B2002908D4012210F01F018A4013
:104FD000304900B2400941F8202070477047012055
:104FE0002D490870704780B540682C49096888478A
:104FF00001BD7CB541F28834012501210091019069
:10500000254E0020307026480078002801D101206C
:1050100000E00020234A694600F09FFB00280AD1E7
:1050200003E00A20FFF7C2F90A3C002C03D03078D5
:105030000128F6D100252800C0B276BD7FB5040056
:105040000D006846184991E84C0080E84C008DF846
:105050000040684600F018FB0121144800F0C8FB2E
:1050600068462100C9B200EB8100B0F90400FFF7E7
:10507000A7FF68462100C9B200EB8100B0F9040027
:10508000FFF790FF05480560054804707FBD0000EC
:1050900000E100E080E200E0C524092810070828AC
:1050A000C4240928DF4F2810288A2810E74F281029
:1050B00030B4614B1818C009604C14EB001404297B
:1050C0000DD223681F25C8008540AB43D2B212F031
:1050D0001F02C90012FA01F1194321600CE0091FF7
:1050E00063681F25C8008540AB43D2B212F01F028F
:1050F000C9008A401A43626030BC7047002A04D15C
:10510000012212FA01F1416003E0012212FA01F1D9
:105110008160704710B48900436C0F248C40A34316
:1051200012F00F0212FA01F11943416410BC7047EA
:1051300010B4836C01248C40A34312F0010212FAD4
:1051400001F11943816410BC704710B4C36C012491
:105150008C40A34312F0010212FA01F11943C16419
:1051600010BC704710B449001031C36C03248C404C
:10517000A34312F0030212FA01F11943C16410BCF7
:1051800070474269012212FA01F14161406970479A
:1051900010B4836901248C40A34312F0010212FA77
:1051A00001F11943816110BC704710B44900036CD0
:1051B00003248C40A34312F0030212FA01F11943B5
:1051C000016410BC7047F8B505000E0014000027FC
:1051D000002D2ED0002C2CD0226831002800FFF7A3
:1051E0008DFF227A31002800FFF762FF62693100EB
:1051F0002800FFF79DFFA26931002800FFF7A5FFF7
:10520000E26931002800FFF7ADFF62683100280035
:10521000FFF780FFE26831002800FFF7C6FF31008A
:105220002800FFF7AEFF226931002800FFF7B0FF2A
:1052300000E0034F3800F2BD0000CFBF0000304057
:1052400001005A0010B4012291F84C30052B03D212
:1052500091F84D30052B01D31000A7E0002800F095
:10526000A480002900F0A180514A12684B7963F3B1
:1052700092428B7913F0030363F311420B7A13F01C
:10528000070363F31A62CB7963F39E720B7D63F3BA
:10529000000291F8243063F3410202600A7910F1B0
:1052A00030031C6862F307041C604A79012A0BD1A1
:1052B0008A79002A02D10022826007E08A79012AD5
:1052C00004D10A68826001E001228260CA6802613A
:1052D0000A694261CA6982610A6AC2610A68026235
:1052E000344A12680B7E03F0FF03120A12021A43BB
:1052F00091F8303003F0FF0363F3174291F8403028
:1053000003F0FF0363F31F6291F8483003F0FF03DB
:1053100063F30F224264284A126891F8383003F090
:10532000FF03120A12021A4391F8283003F0FF0318
:1053300063F30F228264214A12688B7D13F003030A
:10534000920892001A4391F8253013F0030363F397
:105350008B2291F82C3013F0030363F3051291F8BC
:10536000343013F0030363F3092291F83C3013F057
:10537000030363F3871291F8443013F0030363F3DC
:105380008302C2640E4A126891F84C3013F007038E
:10539000D208D2001A4391F84D3013F0070363F39B
:1053A00006124265497D81670022100010BC7047DB
:1053B000C48A2810C88A2810CC8A2810D08A2810BD
:1053C000D48A2810016851F0004101607047816063
:1053D0007047806870474030016851F010010160EB
:1053E000704700002DE9F041DFF8D0311C00DFF8F4
:1053F000D051D5F800C0DFF8CC512D68DFF8C86176
:105400003668DFF8C8713F685FF0000E5FF0000E8D
:10541000002800F0D080002900F0CD804C68002CDE
:1054200001D18C6805E04C68022C01D1002400E019
:105430000224D1F810E0D1F81480C64502D3D1F887
:1054400010E001E0D1F814E0BEF1090F08D23CF4FD
:10545000404C91F82130002B12D05CF4807C11E09C
:10546000BEF1110F03D2012363F38F3CF1E7BEF1CC
:10547000210F03D2022363F38F3CEAE718009BE07D
:105480003CF4807CCB685B1E13F00F035FEA1C1CAE
:105490005FEA0C1C53EA0C0C012363F3196CC0F88F
:1054A00000C00B7F002B01D0002300E0012363F339
:1054B00000054B681B0963F34105CB7E63F30415BC
:1054C0004B7E63F345150B68012B01D1012300E0EE
:1054D000002363F3DF7523005B0863F3820564F345
:1054E000C3054B7F63F308258B7F63F34925CB7F8F
:1054F00063F38A2591F8203063F3CB250B7913F001
:10550000030363F3196505620B7E63F308278B7E43
:1055100063F349270B695B1E13F01F037F097F01AB
:105520001F43C0F8007391F8243003F0FF0310F517
:10553000417425682D0A2D022B4323600B7E63F3F3
:1055400008264B695B1E13F01F03760976011E4384
:10555000C0F8006291F82C3003F0FF0310F50174DD
:1055600025682D0A2D022B4323600B6BC0F8883F62
:105570008B6AC0F8C83F91F8383010F57064256820
:1055800063F34925256091F8391010F574631C68A0
:1055900061F3CB241C600021C0F8C81E002A09D08A
:1055A00000201060002090610020D0600020D061B9
:1055B0000748106200242000BDE8F0810140AA00E5
:1055C000AC8A2810B08A2810B48A2810B88A28100B
:1055D000EFCDAB00002007E00549C2018A5822F058
:1055E0000042C301CA50401C3F28F5DB7047000051
:1055F0000000584038B50400082C0FD3DFF8BC5227
:105600001822DFF8BC12280000F076F90020E875B7
:10561000CD20AC490860002000F0A6F9AA4864013A
:10562000204432BD38B50400082C0DD3A34D1822F8
:10563000A349280000F060F90020E875E820A1499E
:105640000860002000F090F9A0486401204432BDB9
:105650009F4B1B6862F31F4361F30F038360704726
:10566000C0687047006870479A4A126861F30F0279
:1056700082607047C1607047C069C00FC0B2704798
:1056800080B500F0E9F902BDFEB504000025924E98
:1056900020783070307804EB8000C078ADF80000DE
:1056A000307804EB80008088ADF8020001208DF88E
:1056B0000400002108E001220800C0B204EB8000D1
:1056C000807882401543491C0800C0B20228F2DBF2
:1056D000002715E040F2FF3306E038003178C0B211
:1056E0008842F7D1BDF900301BB22A003800C0B2A1
:1056F00004EB8000811C3800C0B200F012F87F1C5F
:105700003800C0B20228E8DB684600F0B9F90FF2B1
:10571000F501BDF9000000F0F2F901206F490870B1
:10572000F7BD38B51C006E4D242358430544087856
:10573000286048786860AA602868FFF75BFF2861E6
:105740006868FFF76FFF6861AA68A9686869FFF772
:105750007FFF0020A861AC8131BD2DE9F8430C002A
:1057600015005E490978002901D15E483EE02421F8
:105770005B4A484302EB00065748007801FB00F102
:1057800002EB01075FF00109D7F8048019FA08F865
:105790005FEA0848706819FA00F93069002824D0D7
:1057A000B86900281FD1306900F03EF9002818D1EF
:1057B000BFF34F8F206880B22060206858EA00084D
:1057C000C4F8008021003069FFF754FF0120B86160
:1057D000FD61BFF34F8F49463069FFF745FF002059
:1057E00004E0414802E0404800E04048BDE8F28360
:1057F000082904D23E4A42F82100002000E03D483A
:105800007047000080B535480078002808D034493A
:10581000314802782420424301EB020000F001F8F5
:1058200001BD7CB504000020009000266069FFF7F0
:1058300017FF0500280C0004002827D0280C0004BE
:10584000616908602069FFF717FF00281ED0BFF3C9
:105850004F8F69462069FFF713FF002810D1009889
:105860000668360C0098007800F0FF00082807D280
:105870001F4951F820100800002801D000988847DF
:10588000BFF34F8F3100206900F0D6F8280411D003
:10589000ADB260690560E069002804D0E069804726
:1058A0000020E06104E0206A002801D0206A8047DF
:1058B0000020A0616069FFF7D5FE73BDAC23092805
:1058C000108228108824092800002240001022405D
:1058D000A48A2810A88A2810B6240928B7240928E1
:1058E000842209280B028A0007028A0004028A0027
:1058F000382309280A028A0001B58B071AD18307C9
:1059000024D1121F21D351F8043BA3F1013C2CEA0E
:10591000030C1CF0803C04BF40F8043BF1E79CFA08
:105920008CFCBCFA8CF1C1F118018B40CB4040F8E3
:10593000043B13E0042A09D311F8013B521E00F87E
:10594000013B5BB18B07F7D1D9E7121D5AB111F8B2
:10595000013B521E00F8013B03B1F8D111001CBFFE
:105960000022FCF75FFC01BD01BEFEE780B5234AC3
:1059700023490B6893423ED00A60224A12684A6269
:10598000214A8A6202684A6042688A608268CA6004
:10599000C2680A6102694A6142698A618269CA61B0
:1059A000C2690A62F1EE102A12F0900F23D0174A52
:1059B0008A62026ACA62426A0A63826A4A63C26A85
:1059C0008A63026BCA63426B0A64826B4A64C26B6D
:1059D0008A64026CCA64426C0A65826C4A65C26C55
:1059E0008A65026DCA65426D0A66826D4A66C26D3D
:1059F0008A66006EC86600F099F801BDFAF9F8F7FA
:105A0000C821092828ED00E0A4A3A2A1ABAAA9A857
:105A1000194A126861F30F0242607047C06870470C
:105A2000C069C00FC0B270470068C00F002801D124
:105A3000124800E00020704738B504000D00200037
:105A4000FFF7EEFF002805D029002000FFF7E0FF58
:105A5000002000E0094832BD38B504000D002000E8
:105A6000FFF7DEFF002805D02000FFF7D7FF2860F2
:105A7000002000E0014832BDA08A281001008A0001
:105A800030B40021234A1368234A1468002832D016
:105A9000224A1568C5F303250E2D0FD01268C2F3F4
:105AA00003220D2A28D1827812F00F022409240142
:105AB00014430279002A15D0012214E0827812F0F2
:105AC0000F021B091B0113430279002A01D0012296
:105AD00000E0002262F3DF73114AB0F9000042F8DF
