:020000041008E2
:100000000000082889FF08105D0C09100909091073
:10001000610C0910650C0910690C09100000000042
:10002000000000000000000000000000F9090910B5
:100030006D0C091000000000710C0910750C0910FE
:100040000FFE081035FE08105BFE081081FE081038
:10005000A7FE0810CDFE0810F3FE081019FF0810C7
:10006000790C09107D0C0910810C0910850C091000
:10007000890C09108D0C0910910C0910950C0910B0
:1000800003E0DFED810A30EE200ADFED800AB4EEF6
:10009000600AF1EE10FAF4DADFED7D0AB4EE600AE0
:1000A000F1EE10FA04D5DFEDD10A30EE200AF3E7C5
:1000B0007047B4EE600AF1EE10FA02D5B0EE600AB5
:1000C00007E0B4EE401AF1EE10FA02D5B0EE410AA4
:1000D000FFE77047DFF81C0B8078DFF81C1B087007
:1000E0000020DFF8181B08700020DFF80C1C0870D7
:1000F000704780B5DFF8000B0078DFF8F81A8978D0
:10010000884201D0FFF7E6FF01BDDFF8F41A02686C
:100110000A604168DFF8EC2A11608168DFF8E82A9C
:1001200011600169DFF8E42A11600169DFF8E02A53
:100130001160DFF8E01A00220A604069DFF8BC1B9A
:100140000860704770B52DED068B04000D0095ED2D
:10015000000ADFF8AC0AD0ED000A30EE608A95EDB7
:10016000010ADFF8A00AD0ED000A70EE608ADFF81D
:100170009C6A96ED000A01F08FF9B0EE409A96ED78
:10018000000A01F08BF9F0EE409A95ED020ADFF8D3
:10019000780AD0ED000A30EE60AA2000C0B2002834
:1001A00004D1DFF8700A0021016011E0DFF8646A11
:1001B00095ED040ADFF8580AD0ED000A30EE600A27
:1001C000FFF75EFFD6ED000A30EE200A86ED000A4A
:1001D0002869DFF83C1A08601821DFF8242B29EE83
:1001E000080A09EEA80A2000C0B24843104480ED76
:1001F000000A2000C0B24843104429EE280A09EE44
:10020000C80A80ED010AB5EE40AAF1EE10FA01DC51
:100210009FED93AA2000C0B24843104480ED02AA8B
:100220002000C0B248431044DFF8E8391B68C360BF
:100230002000C0B2484302EB00036D69DFF8BC0A3E
:1002400000682D1A1D61E4B24C4302EB040000214A
:100250000175BDEC068B70BDDFF898295178002937
:1002600002D19FED7F0A0EE001005378C9B2994296
:1002700001D35078401EDFF8882AC0B218214843C5
:10028000104490ED030A7047DB0FC9C0DC0F4940F2
:10029000DB0F49C02DE9F8432DED028B07000C0060
:1002A00015001E00DFF84C194878002812D1002CE8
:1002B00003D0DFF8500A00682060002D03D0DFF87B
:1002C000480A00682860002E03D0DFF8400A006862
:1002D000306044E038004A78C0B2904201D3487898
:1002E000471EDFF81C1A3A00D2B21820424301EB35
:1002F0000208DFF8189A99ED000A01F0CDF8B0EE87
:10030000408A99ED000A01F0C9F8D8ED000A98ED8D
:10031000011A002C09D0DFF8EC09D0ED001A48EEE4
:10032000201A40EE411AC4ED001A002D09D0DFF862
:10033000D809D0ED001A40EE201A48EE011AC5ED9A
:10034000001A002E0BD03800C0B2FFF785FFD9EDA0
:10035000000A30EE800AFFF793FE86ED000ABDEC3E
:10036000028BBDE8F183000080B52DED028BB0EE6D
:10037000438A31EE401A71EEE01A32EE402A72EEF4
:10038000E00A21EE010A01EEA10ADFED5F2AB4EED8
:10039000620AF1EE10FA01D500201DE061EE022A9A
:1003A00041EEA02AF4EE402AF1EE10FA01D5002029
:1003B00012E061EE200A41EEC20AF0EEE08A01F09E
:1003C0006FF888EE800AB4EE408AF1EE10FA01DB95
:1003D000012000E00020C0B2BDEC028B02BD000095
:1003E00080B59FED4A3AFFF7BFFF02BDDB0FC94062
:1003F00080B5DFF800088178491C8170FFF76AFE3C
:10040000002001F0EEF801BD002806D00A00DFF858
:10041000E4375B78D2B29A4200D30AE001224275F7
:100420008175DFF8DC38C9B2182251431944097DBF
:10043000C17570470020DFF8D81808700020DFF879
:10044000D4180860DFF8D008002101607047000070
:1004500080B5DFEDB90A30EE200AFFF711FE01BDCD
:100460000000000070B52DED028B84B005000C007B
:10047000002C06D0DFF87C6728007178C0B2884273
:1004800001D300203BE0002302AA03A92800C0B248
:10049000FFF700FF6D1C00E06D1C28007178C0B2F2
:1004A00088422BD200236A4601A92800C0B2FFF778
:1004B000F1FE9DED010ADDED030A30EE608A9DED4F
:1004C000000ADDED020A70EE608A28EE080A08EEE6
:1004D000A80A00F0E5FFDFEDCA0AB4EE600AF1EE0B
:1004E00010FAD9DBF0EE480AB0EE680A01F094F891
:1004F000FFF7AEFF84ED000A012000E0002004B009
:10050000BDEC028B70BD0000BE3786350AD7233D97
:10051000002801D0002900D105E00022026001225C
:1005200002720969C160704778B587B005000C0098
:10053000160001A8182101F0A9F8002C05D1280007
:1005400001A9182201F0B6F81EE03100C9B201A8D5
:10055000FFF75AFFFFF74CFF69463000C0B2FFF7C4
:1005600081FF002807D00020019001208DF80C00A9
:100570000098049003E0210001A8FFF7C9FF2800BC
:1005800001A9182201F096F808B070BDF8B52DED5C
:10059000048B04000D00B0EE409AB0EE608A002C8F
:1005A00012D0002D10D01000DFF848164978C0B2E4
:1005B000884209D2DFF84817D2B21820424301EB33
:1005C0000200007D012801D00020B1E0DFF82C6698
:1005D0003078002810D095ED030AB0EEC00ADFEDA8
:1005E000930AB4EE600AF1EE10FA2CD500203070B8
:1005F0000120DFF80417087095ED030A00F002F9F6
:10060000DFF8F4763878002822D1DFED890AB4EEDD
:10061000609AF1EE10FA1BDBD5ED030AF0EEE00A6A
:100620009FED821AF4EE410AF1EE10FA10DBB4EEFF
:10063000480AF1EE10FA0BDB01203070DFF8DC061F
:100640002060012074E0DFF8D406206001206FE014
:10065000DFED778AB4EE689AF1EE10FA20DB9FEDB9
:10066000B60AB4EE408AF1EE10FA19D5B7EE001AC8
:10067000DFEDB20A9FEDB00A88EE000AFFF719FD20
:10068000F7EE000A30EEC00ADFEDD10A94ED001A51
:1006900070EEC10A94ED001A00EE801A84ED001A83
:1006A0009FEDA70AB4EE408AF1EE10FA09D538782A
:1006B000002806D101203070DFF86006206001209C
:1006C00036E09FEDA00AB4EE408AF1EE10FA04D5B0
:1006D000DFF84C03206000202AE09FED9B0AB4EE77
:1006E000408AF1EE10FA01DB002021E09FEDB90A0B
:1006F000B5EE400AF1EE10FA03D8C9482060002098
:1007000016E0DFEDB50A78EE200A80EE800AB7EE3B
:10071000001ADFED8A0AFFF7CCFCD4ED000A70EE78
:10072000A80A9FEDBF1A00EE801A84ED001A00207F
:10073000BDEC048BF2BD0000DB0F494010B52DED80
:10074000048B84B00400F0EE408A2000C0B2401C4C
:10075000DFF8A0144978884202D39FED780A36E08A
:10076000002302AA03A92000C0B2FFF793FD0023D3
:100770006A4601A9641C2000C0B2FFF78BFD9DED05
:10078000010ADDED030A30EE608A9DED000ADDED21
:10079000020A30EE609A28EE080A09EE090A00F013
:1007A0007FFEDFED170AB4EE600AF1EE10FA02D513
:1007B0009FED620A0BE0F0EE480AB0EE490A00F045
:1007C0002BFF30EE680AFFF75BFCB0EEC00A04B006
:1007D000BDEC048B10BD000080B5B0EEC00A20EE69
:1007E000000ADFEDA30A80EE200ADFEDB10A30EE49
:1007F000200AB7EE001ADFED510AFFF75AFC01BDDF
:100800008FC2753C80B5B0EEC00A20EE000ADFED65
:10081000980A80EE200ADFEDA70A30EE200AB7EE34
:10082000001ADFED460AFFF744FC01BD0BD7A33DDC
:10083000CDCC4C3D70B52DED028B04000D00B0EE1B
:10084000608A002C16D0002D14D0DFEDA30AB4EE80
:10085000600AF1EE10FA0DD49FEDA00AB4EE401A32
:10086000F1EE10FA06D494ED000AB5EE400AF1EE6E
:1008700010FA01DB00205CE0DFF8806330780028AC
:1008800010D095ED030AB0EEC00ADFEDB00AB4EE69
:10089000600AF1EE10FA24D5002030700120DFF854
:1008A0005814087095ED030AFFF796FFDFF8480427
:1008B0000078002819D1D5ED030AF0EEE00A9FED8B
:1008C000A31AF4EE410AF1EE10FA0EDBB4EE480A78
:1008D000F1EE10FA09DB012030707548206001202C
:1008E00027E073482060012023E09FED130AB4EE57
:1008F000408AF1EE10FA01DB00201AE0B7EE001A90
:10090000DFED0E0A9FED0C0A88EE000AFFF7D1FB1F
:10091000F7EE000A30EEC00ADFED2D0A94ED001A62
:1009200070EEC10A94ED001A00EE801A84ED001AF0
:100930000020BDEC028B70BD6666663F00000000C3
:100940002A5C0F3D9B99193E9A99993E38B586B01D
:1009500005000C006846182100F098FE002C05D117
:1009600028006946182200F0A5FE2FE06169DFF833
:10097000A4030068091AB1F5827F15D3FFF75AFD69
:100980009C480221017000218170FFF7A3FB012028
:100990008DF8100021006846FFF7BAFD280069466F
:1009A000182200F087FE11E0DFF8FC08009001201B
:1009B0008DF80800DFF8F4080068039001208DF836
:1009C000120028006946182200F074FE07B030BDFE
:1009D0008FC275BD9A99193E9A9919BE10B5040037
:1009E000002C01D1002019E000F0C1FEDFF8C008A2
:1009F0000121017001214170002181700021C1702D
:100A000000210171FFF716FDFFF764FB2000FFF7DF
:100A10007CFB21000020FFF795FB012010BD0000AA
:100A2000CDCC4CBD70B50D00002803D0714C2178A1
:100A3000012901D0002018E06178402903D301206A
:100A40002071002011E0667801003000C0B2FFF78D
:100A500079FBDFF86018F6B21820464301EB060078
:100A600005756078401C6070012070BD00000000BA
:100A7000CDCCCC3F10B55F4C2078012801D00020B0
:100A800014E06078022805D2002020700020E07079
:100A900000200BE06178DFF81C0801F02DF802213E
:100AA00021700121E1700021A170C0B210BD0000D1
:100AB000EC51383ECDCC0C3F80B54E494A78022AE5
:100AC00001D2002006E00200D2B24978DFF8E40744
:100AD00001F042F802BD0000CDCC4C3FDB0F493F96
:100AE00080B500F044FEDFF8C80700210170002146
:100AF0004170002181700021C17000210171FFF758
:100B000099FCFFF7E7FA01BD38B5050000F02FFEAC
:100B1000DFF89C470020207065700020A070002046
:100B2000E07000202071FFF785FCFFF7D3FA6078B2
:100B3000022803D200206070002004E00220207010
:100B40000120E070012032BD00000000ED51383E70
:100B500080B5030000208DF80000DBB26A4640211A
:100B6000DFF8500701F046F8002801D1002003E02B
:100B70009DF80000FFF7C8FF02BD80B50020FFF719
:100B8000E7FF02BD80B5030000208DF80000DBB256
:100B90006A464021DFF81C0701F00AF8002801D15D
:100BA000002003E09DF80000FFF7AEFF02BD38B55E
:100BB0000400002C06D00F4DE878002802D0687899
:100BC000022801D2002013E000F0D1FD032028709C
:100BD0000120A8704B482168016060684A4908609C
:100BE00020694A490860FFF725FCFFF773FA0120E6
:100BF00032BD0000302F03281F3103282031032885
:100C0000D82F0328DC2F0328E02F0328E42F032804
:100C1000E82F0328EC2F0328F8B52DED028B0400F4
:100C2000002C0ED00800C0B200280AD0DFF8805691
:100C30002878032805D1E878002802D068780228AF
:100C400001D2002055E0AE7800E0761C30006A78D2
:100C5000C0B290424CD21820294A3300DBB2434341
:100C600013441B7D0F00FFB2BB42EED13100C9B26D
:100C700000FB01F002EB00073000C0B2FFF7ECFA16
:100C8000D4ED040A30EEC00AFFF7FAF9B0EE408A5C
:100C9000B0EE480A00F000FCF0EE408AB0EE480AE0
:100CA00000F0FCFB194880ED008AD7ED000A94EDB6
:100CB000001A08EEE01AD7ED010A00EE201A1148DA
:100CC00080ED001AD7ED000A94ED011A00EE601ACB
:100CD00097ED010A08EEC01ADFF8DC0580ED001A76
:100CE000761CAE70FFF7A6FBFFF7F4F9012000E0D9
:100CF0000020BDEC028BF2BD21310328F02F032828
:100D0000AC1E0328F42F0328F82F0328FC2F0328F8
:100D10001E3103280030032804300328CDCCCC3EFC
:100D20002DE9F8432DED0A8B96B005000C0004A8C0
:100D3000182100F0ABFC002C0DD0DFF8748598F87A
:100D40000000032807D198F80300002803D098F882
:100D50000100022805D2280004A9182200F0AAFCEC
:100D600073E2607E002816D0022088F80000002080
:100D700088F80200FFF75EFBFFF7ACF901208DF861
:100D80002100210004A8FFF7C3FB280004A91822B2
:100D900000F090FC59E2DFF824653078002804D098
:100DA00021002800FFF7D2FD4FE20AA800F002FD63
:100DB0009DED0DAAB5EE40AAF1EE10FA06D99FED11
:100DC000C40AB4EE40AAF1EE10FA0DDB9FEDC1AA01
:100DD0000AE03900C9B204A8FFF716FBFFF708FBC9
:100DE0009DF8270000287DD198F8020098F801109E
:100DF000884280F0148298F80200B0F1010998F856
:100E00000270FFF776F9002302AA03A94846C0B290
:100E1000FFF740FA00236A4601A93800C0B2FFF785
:100E200039FA3800C0B2401C98F80110884202D349
:100E30005FF0010901E05FF000099DED010ADDEDC1
:100E4000030A30EE60BA9DED000ADDED020A70EE95
:100E500060BA2BEE0B0A0BEEAB0A00F021FBF0EEB2
:100E6000408AF0EE4B0AB0EE6B0A00F0D5FBF0EED4
:100E700040AAB0EE6A0A3800C0B2FFF75FFCF0EE9D
:100E8000409A9FEDC98AF4EE488AF1EE10FA33D504
:100E9000DFF820143A00D2B21820424301EB0200DE
:100EA000007D012895D194ED030AB0EEC00ADFED74
:100EB000BF0AB4EE600AF1EE10FA0CDB210004A8C0
:100EC000FFF726FB01208DF82200280004A9182234
:100ED00000F0F0FBB9E13A00D2B221002800FFF7A0
:100EE00023FBB2E1210004A8FFF712FB280004A9AC
:100EF000182200F0DFFBA8E19DED010AD4ED000A05
:100F000030EE60CA9DED000AD4ED010A70EE60CAB1
:100F10002CEE0C0A0CEEAC0A00F0C2FAB0EE409ACD
:100F20002CEE0B0A0CEEAB0A80EE28BADFF8841325
:100F30003A00D2B21820424301EB0200007D0128A2
:100F400002D15FF0010801E05FF000084046C0B246
:100F5000002812D09FEDBFAAB0EE483AD4ED012A86
:100F600094ED002ADDED001A9DED011ADDED020A77
:100F70009DED030AFFF7F8F90DE0D4ED012A94ED99
:100F8000002ADDED001A9DED011ADDED020A9DED4E
:100F9000030AFFF725FAB4EE49AAF1EE10FA03DAD4
:100FA0000100C9B2002901D0012100E00021424620
:100FB000D2B2002A13D09FEDB40AB4EE409AF1EEFB
:100FC00010FA0CD594ED030AB0EEC00ADFED770AF3
:100FD000B4EE600AF1EE10FA01D5012200E0002221
:100FE0004346DBB2002B35D09FEDA80AB4EE409A01
:100FF000F1EE10FA02D4C0B200282BD01000C0B21B
:10100000002827D19FEDA00AB4EE409AF1EE10FA25
:1010100002D5002004900BE0B5EE40BAF1EE10FAD4
:1010200002DB9FED9B0A01E09FED9A0A8DED040A19
:1010300001208DF81800B0EE6A0AFFF709FA8DED6D
:10104000070A01208DF82200280004A9182200F0C8
:1010500031FBFAE04846C0B200283DD04046C0B25D
:10106000002802D01000C0B201E00800C0B2002881
:1010700032D05FFA88F8B8F1000F06D03A00D2B249
:1010800021002800FFF750FADFE0FFF7B1F9012057
:10109000307060698A490860B0EE6A0AFFF7D8F9D3
:1010A000824880ED000A210010A8FFF74FFC0AA833
:1010B00010A9182200F0FEFA3900C9B20AA8FFF7F9
:1010C000A3F928000AA9182200F0F4FABDE000BF35
:1010D00090C2F53C8FC2F53C5FFA89F9B9F1000F77
:1010E00026D14046C0B2002802D01100C9B200E0AB
:1010F000C9B200291CD05FFA88F8B8F1000F06D0F9
:101100003A00D2B221002800FFF70EFA9DE0390024
:10111000C9B204A8FFF778F9FFF76AF9210004A81B
:10112000FFF7F6F9280004A9182200F0C3FA8CE0B2
:10113000B0EE6A0A00F0B2F9B0EE408AB0EE6A0A88
:1011400000F0AAF9D4ED010A9DED021A70EEC10A71
:1011500020EE800ADDED030A94ED001A70EEC10A5C
:1011600000EE880A9FED4C1ADFED4C0AF8EE001AEB
:1011700020EE210AFEF79DFF3AEE800AFFF768F99C
:10118000B0EE408A94ED040A38EE400AFEF778FF8C
:10119000B0EEC00ADFED420AB4EE600AF1EE10FADA
:1011A00006DB002004900EE08FC2753C0BD7233D78
:1011B00044480490DFED3B0AB4EE600AF1EE10FA09
:1011C00001DB41480490B0EE691AF0EE490AB0EE36
:1011D000680A210004A8FFF72DFBC0B2002801D047
:1011E00094ED048AF0EE490A3A00D2B2B0EE680AF1
:1011F000210004A8FFF7CAF9C0B2002801D094ED7D
:10120000048A01208DF818008DED078A01208DF8E1
:101210002200280004A9182200F04CFA15E0022050
:1012200088F80000002088F80200FFF703F9FEF7B5
:1012300051FF01208DF82000210004A8FFF768F974
:10124000280004A9182200F035FA16B0BDEC0A8B6C
:10125000BDE8F1830AD7233C80B500F088FA144931
:10126000C878002801D0022000E00020087000208B
:101270008870FFF7DFF8FEF72DFF01BD80B50C4940
:10128000052200F007FA01BD0BD7A33C9B99193E3C
:10129000CDCC4CBDCDCC4C3DC2B8B23EC2B8B2BE36
:1012A000F366DF3EC2B8323ECDCC4C3E043003285C
:1012B000302F0328AC1E0328F82F03281E310328E3
:1012C000003003289A9999BEEC5138BEDFED620ACE
:1012D00060EE200A10EE902A22F0004101EE101A72
:1012E000DFED5E1AB4EE611AF1EE10FA25D54FF07B
:1012F0007C5102F000420A4301EE102A71EE200AEE
:10130000FDEEE00A10EE901A00296AD0FAEEC90A42
:101310009FED531A00EE810ADFED521A00EEA10A8A
:101320009FED512A00EE820ADFED502A00EEA20A5C
:101330009FED4F1A00EE810A53E010EE101A4B0099
:101340001B1613F1010F0AD14900081610F1010F05
:1013500002D1090240F07F809FED460A70474900A4
:1013600004D1002877D0B7EE000A70474FF07C51C7
:1013700002F000420A4301EE102A71EE200A10EE3C
:10138000902A51000DD0090EC1F196011829A8BF6D
:1013900002F0004203DA0029C4BFCA408A4000EECE
:1013A000902A10EE901A490017D09FED331A20EEC4
:1013B000811ADFED2B1A01EE210A9FED2A2A01EE98
:1013C000020ADFED292A01EE220A9FED283A01EEFA
:1013D000030ADFED271A01EE210AFDEEE00A10EE06
:1013E000901A01F00301081810EE101A21F00041C4
:1013F00000EE901A9FED211AF4EE410AF1EE10FA78
:1014000004D5C10723D5B7EE000A20E0C10760EE7E
:10141000000A0ED59FED1A0A9FED1A1A00EE801AE7
:10142000DFED191A41EE201AB7EE000A01EEA00A0C
:101430000DE09FED162ADFED161A40EE821ADFED61
:10144000152A20EE201A41EEA02A01EE220A80077A
:1014500048BFB1EE400A704783F9223F0000004FB9
:101460000000C9C600A0FDC00020A2BA000034B32D
:101470000030C2AEFFFFFF7F0000803800008039DF
:101480009349B2BA36A02A3DDFFFFFBE6E8C4CB93D
:101490004283083CA1AA2ABE012017E7002015E7D5
:1014A000B5EEC00AF1EE10FA02D4B1EEC00A7047F0
:1014B0006FF0004C00EE10CAAFF300807047F0B43C
:1014C0000246106895681318506803EB5004C00773
:1014D00048BF4D44A3422DD013F8016B16F0030012
:1014E00004BF13F8010BC01C31090F2907D113F8F1
:1014F000011B0F3103E013F8017B05F8017B401E4F
:10150000F9D10029E6D013F8010BC6F38106032EAA
:1015100008BF13F8016B00EB062040422844002668
:10152000B71E8F421EBF10F8017B05F8017B761CA9
:10153000F6D1CFE7F0BC02F10C00704780B5C0B225
:10154000002805D041F288312A2001F060F903E03B
:1015500000212A2001F05BF901BD80B500224FF483
:10156000FA612A2001F080F9002027490860002054
:101570002649087000202649086001BD38B5224C74
:10158000216800292CD0214A2168137801EB8303BC
:101590001988002905D10020FFF7D0FF0020206026
:1015A0001EE01B490D684019086008681D88A842A4
:1015B00016D30D6818882D1A0D601078401C107015
:1015C0002068117800EB81010888002805D10020EF
:1015D000FFF7B4FF0020206002E08878FFF7AEFF3D
:1015E00031BD80B508490B4AC0B252F820000860EE
:1015F0000020064A10700020054A106008688078B4
:10160000FFF79CFF01BD0000982F03281631032827
:101610009C2F032834BF022852EC101AB0EEC00AE7
:10162000C80F49005200F0EEE00A28BF0C3011F15B
:10163000807F38BF12F1807F0CD28A4238BF80F0A1
:101640000400124214D034BF80EE800A80EE200ADB
:1016500001F004BA11F1807F08BF80F0040098BF48
:1016600012F1807F08D88A4214BF00224FF07E52C8
:1016700000EE102A01F0F2B96FF0004100EE101AEE
:1016800070470268531C036011707047002201F01C
:1016900037BA000062B38B0708D0521E11F8013B25
:1016A00000F8013B00F024808B07F6D1830740F05F
:1016B000208000BF103A07D330B4B1E83810103A98
:1016C000A0E83810F9D230BC530724BFB1E80810A5
:1016D000A0E8081044BF51F8043B40F8043BD2078F
:1016E00024BF31F8022B20F8022B44BF0B78037083
:1016F0007047121F17D35B0009D151F8043B20F843
:10170000023B1B0C121F20F8023BF6D20BE051F8F3
:10171000043B00F8013B1B0A20F8023B1B0C121F84
:1017200000F8013BF3D238BF121D521E24BF11F83E
:10173000013B00F8013BF8D87047000080B501007C
:10174000002904D0DFF88C001422FFF7B3FFDFF884
:101750008800DFF8781008600420DFF87410087043
:1017600000F005F8FFF7BCF9FFF707FA01BD1448D0
:101770000021017000214170002181700021C170A1
:101780000021017100214171002181710021C1718D
:10179000002101720021C16000210161002141612D
:1017A000002181610748002101600020064908608E
:1017B0007047000080B507491422FFF77BFF01BD89
:1017C000C42D0328D02F0328D42F032860BF02285C
:1017D00072C002284CBF0228AC07091010B57F4C1C
:1017E0002078002803D101F065FA0120207010BD97
:1017F00010B402007A48002407E052F82430584020
:101800000300784800FB03F0641C8C42F5D310BC45
:101810007047C0B25D307047C0B2D0F15C00704715
:10182000F8B50C001500704E3168704A91420AD12B
:1018300071680A2907D1F168891E3F2903D2C0B215
:10184000F168884201D2002016E03769002030613B
:1018500040F285113000FFF7CBFF874202D037619D
:10186000002009E03761002C01D0F0682070002DC5
:1018700001D0B06828600120F2BD2DE9FC410D00C7
:1018800016001C0000218DF80010602803D23100E2
:10189000C9B2002901D1002032E0DDF82080524F8A
:1018A00040F285133A000100002001F07FF9424622
:1018B00069463000C0B2FFF7B3FF002801D1002015
:1018C0001EE0002D16D000260EE018213000C0B218
:1018D000484328443200D2B201FB02F139441431AA
:1018E0001822FFF7E7FE761C30009DF80010C0B20A
:1018F0008842EAD3002C02D09DF80000207001201D
:10190000BDE8F6817CB50C0015001E000100C9B2CF
:10191000032901D300200AE0C0B2FFF77AFF06993D
:10192000009133002A00D2B22100FFF7A6FF76BD56
:101930002DE9F84305000C0017009846602D06D2EB
:10194000002C04D03800C0B2801E3F2801D30020F4
:1019500042E0FFF743FF40F21461FF22224EB146FE
:10196000484601F0B5F9214830600A207060C6F899
:1019700008803800C0B2F060002030615FF00008DD
:101980000FE018214046C0B248433044143042466C
:10199000D2B201FB02F121441822FFF78BFE18F1AD
:1019A000010840463900C0B2C9B28842E9D340F2CA
:1019B000851421003000FFF71BFF30612300320047
:1019C0002900002001F037F9002000900023402278
:1019D00000212800FFF751FFBDE8F28322310328E0
:1019E000C59D1C8193010001981803285256414E51
:1019F000FEB504000D0000260020207000202860A5
:101A0000002718E03000C0B2002803D028680299EF
:101A100088420FD227700298286001260AE002A8A7
:101A2000009001AB402200213800C0B2FFF76AFFEE
:101A30000028E7D17F1C3800C0B20328EFD3300064
:101A4000C0B2FEBD2DE9FF4705000C0003210022B6
:101A500003AE300001F03CF90026002C03D0280032
:101A6000C0B2032801D3002043E0002705E0012095
:101A700003A93200D2B288547F1C28003900C0B2BA
:101A8000C9B2884233D35FF0000A00265FF0000835
:101A90005FF0000919E05046C0B2002802D0029859
:101AA000804510D24E46DDF808805FF0010A0AE05A
:101AB00002A8009001AB402200214846C0B2FFF7C7
:101AC00021FF0028E7D119F101094846C0B20328D7
:101AD00006D203A84946C9B2405C0028E8D0F2E724
:101AE0005FFA8AFABAF1000FC1D1002001E0267036
:101AF000012004B0BDE8F087FEB504000D00002011
:101B00008DF800000026002001900127002C04D051
:101B10002800C0B2801E3F2801D300201BE0FFF741
:101B20005DFE01A96846FFF763FF002809D09DF814
:101B30000060761C0320B6FBF0F100FB1166019FEC
:101B40007F1C3000C0B2FFF764FE3B002A00D2B217
:101B50002100FFF7EDFEFEBDFEB504000D001600EE
:101B600000208DF800000020019001273000C0B255
:101B7000032806D2002C04D02800C0B2801E3F28C3
:101B800001D3002013E0FFF729FE01A96846FFF703
:101B90002FFF002801D0019F7F1C3000C0B2FFF74B
:101BA0003BFE3B002A00D2B22100FFF7C1FEFEBD82
:101BB000F8B505000E0014001F003800C0B203285D
:101BC00007D2002D05D0002C03D03000C0B2002871
:101BD00001D100200DE0FFF701FE3800C0B2FFF791
:101BE0001BFE0021009123003200D2B22900FFF732
:101BF00044FEF2BDFEB505000E0014001F000020DB
:101C00008DF80400002D05D0002C03D03000C0B2A8
:101C1000002801D1002014E0FFF7E0FD01A9380001
:101C2000C0B2FFF70FFF002801D1002009E000201B
:101C3000009023003200D2B229009DF80400FFF783
:101C400061FEFEBD022801D3012010E00B00DBB2D3
:101C5000042B01DB01200AE0DFF8283803EB8000C9
:101C6000C9B2405C824201D3012000E000207047ED
:101C7000F8B506000F0015001C00022E01D301204C
:101C80001DE02A003900C9B23000FFF7DBFF012850
:101C900001D1012013E03800C0B2002812D1B4F500
:101CA000807F0DD2DFF8E0077603304400EB85003B
:101CB00010F58050016864F30F2101600020F2BD2F
:101CC0000120FCE7FFB2012F11D1B4F5803F0CD207
:101CD000DFF8B4077603304400EB850010F5A05020
:101CE000016864F317210160E8E70120E7E70120BC
:101CF000E5E700B20012C0B27047F8B505000E006B
:101D00001700280000B2FFF7F4FF04002000C0B263
:101D1000022801D3012024E03A003100C9B220009A
:101D2000C0B2FFF78FFF012801D1012019E0DFF8D1
:101D300058172000C0B2400308442A00D2B200EB7A
:101D40008200D0F8000CF6B266F3092067F30700B2
:101D5000E4B264032144EDB201EB8501C1F8000C4B
:101D60000020F2BD70B504000D001600022C01D356
:101D700001201DE032002900C9B22000FFF762FFF8
:101D8000012801D1012013E0DFF8FC166003085898
:101D900050F0004050F0407050F47F00EDB265F319
:101DA000092066F307006203885064030859002085
:101DB00070BD10B5C0B2002800F0EA80022800F023
:101DC000EB80C0F0E780042800F0EA80C0F0E680F5
:101DD000062800F0E980C0F0E580082800F0E880DF
:101DE000C0F0E4800A2800F0E780C0F0E3800C280F
:101DF00000F0E680C0F0E2800E2800F0E580C0F040
:101E0000E180102800F0E480C0F0E080122800F0AB
:101E1000E380C0F0DF80142800F0E280C0F0DE80B4
:101E2000162800F0E180C0F0DD80182800F0E08086
:101E3000C0F0DC801A2800F0DF80C0F0DB801C28B6
:101E400000F0DE80C0F0DA801E2800F0DD80C0F0F7
:101E5000D980202800F0DC80C0F0D880222800F053
:101E6000DB80C0F0D780242800F0DA80C0F0D68074
:101E7000262800F0D980C0F0D580282800F0D8802E
:101E8000C0F0D4802A2800F0D780C0F0D3802C285E
:101E900000F0D680C0F0D2802E2800F0D580C0F0AF
:101EA000D180302800F0D480C0F0D080322800F0FB
:101EB000D380C0F0CF80342800F0D280C0F0CE8034
:101EC000362800F0D180C0F0CD80382800F0D080D6
:101ED000C0F0CC803A2800F0CF80C0F0CB803C2806
:101EE00000F0CE80C0F0CA803E2800F0CD80C0F067
:101EF000C980402800F0CC80C0F0C880422800F0A3
:101F0000CB80C0F0C780442800F0CA80C0F0C680F3
:101F1000462800F0C980C0F0C580482800F0C8807D
:101F2000C0F0C4804A2800F0C780C0F0C3804C28AD
:101F300000F0C680C0F0C2804E2800F0C580C0F01E
:101F4000C180502800F0C480C0F0C080522800F04A
:101F5000C380C0F0BF80542800F0C280C0F0BE80B3
:101F6000562800F0C180C0F0BD80582800F0C08025
:101F7000C0F0BC805A2800F0BF80C0F0BB805C2855
:101F800000F0BE80C0F0BA805D2800F0BB80BBE0EE
:101F90001924BFE03124BDE01824BBE03324B9E0AC
:101FA0003524B7E01424B5E03724B3E01324B1E0BE
:101FB0002024AFE01224ADE02124ABE01124A9E0FD
:101FC0001024A7E02824A5E02924A3E02A24A1E0E6
:101FD00009249FE02B249DE008249BE02C2499E019
:101FE000032497E0022495E0392493E03B2491E018
:101FF0003D248FE001248DE03F248BE0002489E024
:10200000402487E0412485E0422483E0432481E0AA
:10201000BF247FE048247DE049247BE0BC2479E0B4
:10202000992477E09A2475E0502473E09B2471E0B2
:10203000B6246FE051246DE09C246BE0B52469E088
:10204000522467E0A02465E0B42463E0532461E0F7
:10205000B3245FE054245DE0B2245BE0B12459E096
:10206000AD2457E0602455E0AE2453E0612451E0F4
:10207000AD244FE062244DE063244BE0AB2449E003
:10208000642447E0AA2445E0652443E0A92441E014
:10209000A8243FE069243DE06B243BE06D2439E057
:1020A0006F2437E0A32435E0702433E0A22431E02C
:1020B00071242FE0A1242DE097242BE0962429E021
:1020C000742427E0952425E0752423E0942421E05E
:1020D00093241FE092241DE078241BE0792419E06A
:1020E0008C2417E07A2415E08B2413E07B2411E084
:1020F0008A240FE05A240DE059240BE0892409E0DA
:10210000582407E0882405E09D22DFF840190020CC
:1021100000F0AAFF2000C0B210BD10B5C0B2002868
:1021200000F0EA80022800F0EB80C0F0E78004288D
:1021300000F0EA80C0F0E680062800F0E980C0F0F8
:10214000E580082800F0E880C0F0E4800A2800F06C
:10215000E780C0F0E3800C2800F0E680C0F0E28069
:102160000E2800F0E580C0F0E180102800F0E48047
:10217000C0F0E080122800F0E380C0F0DF80142877
:1021800000F0E280C0F0DE80162800F0E180C0F0B0
:10219000DD80182800F0E080C0F0DC801A2800F014
:1021A000DF80C0F0DB801C2800F0DE80C0F0DA8029
:1021B0001E2800F0DD80C0F0D980202800F0DC80EF
:1021C000C0F0D880222800F0DB80C0F0D78024281F
:1021D00000F0DA80C0F0D680262800F0D980C0F068
:1021E000D580282800F0D880C0F0D4802A2800F0BC
:1021F000D780C0F0D3802C2800F0D680C0F0D280E9
:102200002E2800F0D580C0F0D180302800F0D48096
:10221000C0F0D080322800F0D380C0F0CF803428C6
:1022200000F0D280C0F0CE80362800F0D180C0F01F
:10223000CD80382800F0D080C0F0CC803A2800F063
:10224000CF80C0F0CB803C2800F0CE80C0F0CA80A8
:102250003E2800F0CD80C0F0C980402800F0CC803E
:10226000C0F0C880422800F0CB80C0F0C78044286E
:1022700000F0CA80C0F0C680462800F0C980C0F0D7
:10228000C580482800F0C880C0F0C4804A2800F00B
:10229000C780C0F0C3804C2800F0C680C0F0C28068
:1022A0004E2800F0C580C0F0C180502800F0C480E6
:1022B000C0F0C080522800F0C380C0F0BF80542816
:1022C00000F0C280C0F0BE80562800F0C180C0F08F
:1022D000BD80582800F0C080C0F0BC805A2800F0B3
:1022E000BF80C0F0BB805C2800F0BE80C0F0BA8028
:1022F0005D2800F0BB80BBE00824C0E00824BEE0FD
:102300000824BCE00824BAE00824B8E00824B6E0B9
:102310000824B4E00824B2E00824B0E00824AEE0C9
:102320000824ACE00824AAE00824A8E00824A6E0D9
:102330000824A4E00824A2E00824A0E008249EE0E9
:1023400008249CE008249AE0082498E0082496E0F9
:10235000082494E0082492E0082490E008248EE009
:1023600008248CE008248AE0082488E0082486E019
:10237000082484E0082482E0082480E008247EE029
:1023800008247CE008247AE0082478E0082476E039
:10239000082474E0082472E0082470E008246EE049
:1023A00008246CE008246AE0082468E0082466E059
:1023B000082464E0082462E0082460E008245EE069
:1023C00008245CE008245AE0162458E0082456E06B
:1023D000082454E0082452E0082450E008244EE089
:1023E00008244CE008244AE0082448E0082446E099
:1023F000082444E0082442E0082440E008243EE0A9
:1024000008243CE008243AE0082438E0082436E0B8
:10241000082434E0082432E0082430E008242EE0C8
:1024200008242CE008242AE0082428E0082426E0D8
:10243000082424E0082422E0082420E008241EE0E8
:1024400008241CE008241AE0082418E0082416E0F8
:10245000082414E0082412E0082410E008240EE008
:1024600008240CE008240AE0082408E0082406E018
:102470004FF48672DFF8D415002000F0F5FD20003F
:10248000C0B210BD9C0B09100000044080B5C0B262
:10249000002800F0EA80022800F0EB80C0F0E7801E
:1024A000042800F0EA80C0F0E680062800F0E98009
:1024B000C0F0E580082800F0E880C0F0E4800A2839
:1024C00000F0E780C0F0E3800C2800F0E680C0F068
:1024D000E2800E2800F0E580C0F0E180102800F0D6
:1024E000E480C0F0E080122800F0E380C0F0DF80DC
:1024F000142800F0E280C0F0DE80162800F0E180B1
:10250000C0F0DD80182800F0E080C0F0DC801A28E0
:1025100000F0DF80C0F0DB801C2800F0DE80C0F01F
:10252000DA801E2800F0DD80C0F0D980202800F07D
:10253000DC80C0F0D880222800F0DB80C0F0D7809B
:10254000242800F0DA80C0F0D680262800F0D98058
:10255000C0F0D580282800F0D880C0F0D4802A2888
:1025600000F0D780C0F0D3802C2800F0D680C0F0D7
:10257000D2802E2800F0D580C0F0D180302800F025
:10258000D480C0F0D080322800F0D380C0F0CF805B
:10259000342800F0D280C0F0CE80362800F0D18000
:1025A000C0F0CD80382800F0D080C0F0CC803A2830
:1025B00000F0CF80C0F0CB803C2800F0CE80C0F08F
:1025C000CA803E2800F0CD80C0F0C980402800F0CD
:1025D000CC80C0F0C880422800F0CB80C0F0C7801B
:1025E000442800F0CA80C0F0C680462800F0C980A8
:1025F000C0F0C580482800F0C880C0F0C4804A28D8
:1026000000F0C780C0F0C3804C2800F0C680C0F046
:10261000C2804E2800F0C580C0F0C180502800F074
:10262000C480C0F0C080522800F0C380C0F0BF80DA
:10263000542800F0C280C0F0BE80562800F0C1804F
:10264000C0F0BD80582800F0C080C0F0BC805A287F
:1026500000F0BF80C0F0BB805C2800F0BE80C0F0FE
:10266000BA805D2800F0BB80BBE00020C0E0002005
:10267000BEE00120BCE00120BAE00220B8E0032067
:10268000B6E00320B4E00420B2E00420B0E005206E
:10269000AEE00520ACE00620AAE00720A8E0092073
:1026A000A6E00A20A4E00B20A2E00B20A0E00C2072
:1026B0009EE00C209CE00D209AE00D2098E00E207A
:1026C00096E00F2094E0102092E0112090E011207D
:1026D0008EE012208CE012208AE0132088E0142083
:1026E00086E0152084E0162082E0162080E0182085
:1026F0007EE019207CE019207AE01A2078E01B2087
:1027000076E01C2074E01C2072E01C2070E01D208C
:102710006EE01D206CE01D206AE01E2068E01E2097
:1027200066E01E2064E01F2062E01F2060E02020A1
:102730005EE020205CE021205AE0222058E02420A6
:1027400056E0242054E0252052E0252050E02620A9
:102750004EE027204CE027204AE0282048E02820AF
:1027600046E0292044E0292042E02A2040E02C20B5
:102770003EE02D203CE02E203AE02F2038E02F20B4
:1027800036E0302034E0302032E0312030E03120BB
:102790002EE032202CE033202AE0342028E03420C0
:1027A00026E0352024E0352022E0362020E03720C6
:1027B0001EE038201CE039201AE0392018E03A20C9
:1027C00016E03A2014E03B2012E03B2010E03B20D2
:1027D0000EE03C200CE03C200AE03D2008E03D20DB
:1027E00006E040F27B129949002000F03DFC0020F9
:1027F000C0B202BD002007E09549C2018A5822F00C
:102800000042C301CA50401C3F28F5DB704770B539
:1028100004000E00002000202000C0B2FFF736FEAA
:102820008B4DC0B2C0012844006A80B206FB00F69E
:1028300042F21070B6FBF0F62000C0B2FFF726FEA1
:10284000C0012844B6B246612000C0B2FFF71EFEA8
:102850000100C9B2C9012944096C51F00101C0B29B
:10286000C0012844016470BD2DE9F041AAB0040004
:102870000D001600342100221DAF380000F028FAA8
:102880000020742100226F46380000F021FA0E204B
:102890001E902000C0B2FFF740FC8DF87C002000A5
:1028A000C0B2FFF786FA07005FF008082000C0B248
:1028B000FFF77FFA1DAA97FBF8F108FB11773900A3
:1028C000644BC0B2C010C001184400F0EAFC200004
:1028D000C0B2FFF7DBFD00220121C0B210F59370FA
:1028E00000B2FFF70AFA2000C0B2FFF7CFFDC0B276
:1028F00010F5937000B2FFF7FCF9092300220121C3
:10290000C0B2FFF7B5F92000C0B2FFF7BFFDC0B2FB
:1029100010F5937000B2FFF7ECF900220121C0B26C
:10292000FFF720FA4C48B0FBF5F1090C4A482A049D
:10293000B0FBF2F302FB1300002800D0491C02296F
:1029400003D200208DF801002FE0032903D20120DB
:102950008DF8010029E0052903D202208DF801003D
:1029600023E0092903D203208DF801001DE011297D
:1029700003D204208DF8010017E0212903D205209D
:102980008DF8010011E0412903D206208DF80100E5
:102990000BE0812903D207208DF8010005E040F209
:1029A000C9122A49002000F05FFB04208DF80000C6
:1029B00001208DF8100000208DF8110003208DF803
:1029C000120003208DF8130000208DF80800224922
:1029D00001229DF901008240B1FBF2F0B0FBF5F05D
:1029E000401E05900598401C06FB00F642F2107050
:1029F000B6FBF0F0089002208DF8400003208DF81F
:102A0000680001201B9001208DF828002000C0B232
:102A1000FFF73CFD0E4D6946C0B2C001284400F0EE
:102A20007FFC2000C0B2FFF731FDC0B2C0012844D6
:102A300000F076FD2000C0B2FFF728FDC0B2C00153
:102A4000284400F072FD2AB0BDE8F081D4050910D9
:102A5000000058400000314000127A001AA210EE27
:102A6000101A43F2A40CC3F6896CF2EC060A614515
:102A700009DB00EE803A70EE800A83EE200A40F017
:102A8000020010EE101A4900D1F1E6410BD860EEB9
:102A9000000A20EE203A03EE010A01EEA02A42EEDF
:102AA000202A80EE220A400810F0020F18BFB1EE73
:102AB000400A02EB8002D2ED000A30EE200A28BF65
:102AC000B1EE400A70470000D7B3DD3F6AD5033F3F
:102AD0002B94A93DB82A593F0000803F000080BFD9
:102AE00000000000920A063FDB0FC93F920A863FB2
:102AF000DB0FC93F920A0640DB0F4940368D274065
:102B000000B500BF130096469446103928BFA0E8D0
:102B10000C50FAD85FEA417C28BF0CC048BF40F88F
:102B2000042BC90728BF20F8022B48BF00F8012B4F
:102B300000BD000038B50C00602C01D2012000E07F
:102B40000020604D36222900C0B200F08DFA3722F5
:102B500029005D48007800F087FA0121E40214F1B1
:102B6000A054200000F098FD002801D1012000E0D1
:102B70000020C0B232BD38B50C00602C01D201205B
:102B800000E000204F4D46222900C0B200F06CFA50
:102B9000472229004C48007800F066FA0121E4023F
:102BA00014F1A054200000F038FD31BDF8B50E003E
:102BB00014001D000020602E01D2012000E0002042
:102BC000404F59223900C0B200F04EFA40F20120C5
:102BD000854201D2012000E000205A223900C0B213
:102BE00000F042FA5B2239003748007800F03CFAE6
:102BF0005FF0A050F602B60800EB8601AA000B00B9
:102C0000012A0EDB13F01F008218BFF34F8F2F48ED
:102C100003602033203A012AF9DABFF34F8FBFF364
:102C20006F8F002004E051F820202260241D401CFA
:102C3000A842F8D3F1BD2DE9F04107000C001500C2
:102C40001E00602C01D2012000E00020DFF874801B
:102C500074224146C0B200F007FA40F201208642D9
:102C600001D2012000E0002075224146C0B200F0F0
:102C7000FBF9762241461448007800F0F5F921006E
:102C80003800FFF757FF002803D021003800FFF776
:102C900072FFE40214F1A054002707E0012229008A
:102CA000200000F03FFD241D2D1D7F1CB742F5D3F1
:102CB000BDE8F08180B5002000F091FC01200249C0
:102CC000087001BDEC030910473103285CEF00E0F8
:102CD00062F30F2262F31F42401810F0030308D082
:102CE000C91A1FD3DB0748BF00F8012D28BF20F801
:102CF000022D130030B414461546103928BF20E9C0
:102D00003C00FAD8490728BF20E90C0048BF40F82A
:102D1000042D890028BF20F8022D48BF00F8012D9E
:102D200030BC7047C91818BF00F8012DCB0728BF69
:102D300000F8012D7047000082B0002001900020B3
:102D400000900020019009E00098401C009000983D
:102D5000B0F5005FF8D30198401C01900198B0F5E0
:102D6000805F02D200200090F1E702B0704780B58A
:102D70000100002001F01CF801BD2DE9F043ADF584
:102D8000137D0700884616001C000020ADF80200E5
:102D90000020ADF80000002002900020ADF80400F3
:102DA0000020ADF80600404601F0F6FA0290DFF888
:102DB000A0532888002801D028698047DFF89403B1
:102DC0000078002800F033812888002800F0118165
:102DD000BDF90600411CADF806103A00010089B2A9
:102DE0000020EB6898474746404601F0D5FA02902C
:102DF0006888A97990FBF1F0ADF804003800471C11
:102E000000780028FAD10020ADF800000EE07F1E07
:102E100038782F2802D038785C2804D1BDF800001B
:102E2000401CADF800000298401E0290BDF8000062
:102E3000022802DA02980028E9D50298002806D470
:102E40007A1CDFF8141353A801F0C2FA0EE0BDF8A3
:102E50000000002805D13A00C04953A801F0B8FA93
:102E600004E03A00BC4953A801F0B2FA0020ADF8E2
:102E7000020042E0BDF80010BDF80020BDF80230AD
:102E800053AF9BB2BDF90400434313FA82F0385CA0
:102E900043AA89B25054BDF80000401CADF80000B0
:102EA000BDF8000080B2BDF9041088420EDA53A8C4
:102EB00001F072FABDF80020BDF802309BB2BDF9F6
:102EC00004104B4313FA82F18842D3D2002043A965
:102ED000BDF800208854BDF90600411CADF806106D
:102EE00043AAE97911FB00F189B20020EB68984709
:102EF000BDF80200401CADF80200BDF8027053A8F6
:102F000001F04AFABDF90410B0FBF1F0401CBFB269
:102F1000874203D20020ADF80000C1E7320090499B
:102F200053A801F055FABDF90600411CADF8061092
:102F300053AAE97911FB00F189B20020EB689847A8
:102F4000002C74D00020ADF8020041E0BDF8001064
:102F5000BDF80020BDF802309BB2BDF90400434328
:102F600013FA82F0205C43AA89B25054BDF80000E5
:102F7000401CADF80000BDF8000080B2BDF904109F
:102F800088420EDA200001F007FABDF80020BDF8F3
:102F900002309BB2BDF904104B4313FA82F1884210
:102FA000D4D2002043A9BDF800208854BDF9060002
:102FB000411CADF8061043AAE97911FB00F189B272
:102FC0000020EB689847BDF80200401CADF80200F5
:102FD000BDF80260200001F0DFF9BDF90410B0FB7C
:102FE000F1F0401CB6B2864221D20020ADF80000BC
:102FF000C1E74FF4807100220DF10C094846FFF73C
:1030000067FE3800A9688847002C07D00094330079
:103010004246544903A801F0DBF905E0330042467B
:10302000514903A801F0D4F903A8A96888470DF510
:10303000137DBDE8F08310B546480078002809D01C
:103040004B4C2100002000F0C1FE01222100474826
:1030500001F0EBF910BD10B514002200D2B200202F
:1030600000F097FE200010BD38B50C001500C0B26E
:10307000002803D13F480078002800D131BD3E49E7
:103080000878002800D0FEE70878401C087001F09E
:1030900005FB00232A0021003848FFF76EFEFFF7EA
:1030A0004BFEF6E710B514001A00C0B2002808D194
:1030B00028480078002804D00B0021003048FFF792
:1030C0005CFE10BD002101804FF6FF7141808180C0
:1030D000FF218171C171002181600021C160002147
:1030E000016170471A4902880A8042884A808288B2
:1030F0008A8082798A71C279CA7182688A60C2685C
:10310000CA6000690861012012490870704700B563
:1031100085B06846FFF7D6FF1A4802906846FFF769
:10312000E1FF05B000BD80B5FFF7F1FF00230022ED
:103130005FF4E131002001F02FF84023124A002112
:103140000A4801F042FA0121002000F032FF01BDDF
:10315000682E03283C310328500B0910300B09104E
:103160005C0B0910C0090910A80A0910282E0328B1
:103170003D31032875C002283E310328400B091059
:10318000680B09106F2D0810702B032830B4614BA9
:103190001818C009604C14EB001404290DD22368E0
:1031A0001F25C8008540AB43D2B212F01F02C900F0
:1031B00012FA01F1194321600CE0091F63681F2511
:1031C000C8008540AB43D2B212F01F02C9008A404A
:1031D0001A43626030BC7047002A04D1012212FAFF
:1031E00001F1416003E0012212FA01F181607047B0
:1031F00010B48900436C0F248C40A34312F00F02DB
:1032000012FA01F11943416410BC704710B4836C89
:1032100001248C40A34312F0010212FA01F1194378
:10322000816410BC704710B4C36C01248C40A3436C
:1032300012F0010212FA01F11943C16410BC704787
:1032400010B449001031C36C03248C40A34312F026
:10325000030212FA01F11943C16410BC70474269BC
:10326000012212FA01F141614069704710B483698B
:1032700001248C40A34312F0010212FA01F1194318
:10328000816110BC704710B44900036C03248C406A
:10329000A34312F0030212FA01F11943016410BCB6
:1032A0007047F8B505000E0014000027002D2ED041
:1032B000002C2CD0226831002800FFF78DFF227AE5
:1032C00031002800FFF762FF626931002800FFF734
:1032D0009DFFA26931002800FFF7A5FFE2693100D8
:1032E0002800FFF7ADFF626831002800FFF780FF7C
:1032F000E26831002800FFF7C6FF31002800FFF721
:10330000AEFF226931002800FFF7B0FF00E0034F55
:103310003800F2BD0000CFBF0000304001005A006D
:103320000122002800F0EC80002900F0E980754AB5
:1033300012680B7A63F392420B7B13F0030363F37F
:1033400011420B7813F0070363F31A628B7863F36F
:103350009E7291F8283063F3000291F8343063F3E1
:1033600041020B7F63F382024B7F63F3C30291F848
:10337000403063F38A2291F84030DBB25B08DBB265
:1033800063F3492291F8703063F3082291F87130A9
:1033900013F0030363F30D3202600A7A002A02D1AC
:1033A0000022826007E00A7A012A02D14A6982601B
:1033B00001E0012282600A6A02614A6A4261CA6AC5
:1033C00082610A6BC2614A6902628A6942624E4A3C
:1033D000126891F8443003F0FF03120A12021A43F4
:1033E00091F84C3003F0FF0363F3174291F85C301F
:1033F00003F0FF0363F31F6291F86C3003F0FF03E7
:1034000063F30F224264414A126891F8643003F07A
:10341000FF0363F30F2291F8543003F0FF03120A05
:1034200012021A4382643A4A126891F8413013F04A
:103430000303920892001A4391F8603013F00303DB
:1034400063F38B2291F8483013F0030363F3051202
:1034500091F8503013F0030363F3092291F85830C8
:1034600013F0030363F3871291F8683013F003033A
:1034700063F38302C264274A126891F8723013F032
:103480000703D208D2001A4391F8733013F00703F0
:1034900063F30612426591F8352082671E4A12686E
:1034A0000B7C13F00303920892001A43CB7C13F0B9
:1034B000030363F387124B7C13F0030363F383026C
:1034C0008B7C13F0030363F305120265134A126841
:1034D000CB8863F31F428B889BB21B0A9BB263F3BA
:1034E0000F220B78052B06D1097901F0FF01120A92
:1034F00012020A4302E0497861F3070202630022E4
:10350000100070473C0C0910400C0910440C0910C5
:10351000480C09104C0C0910500C0910540C0910DF
:10352000016851F00041016070474030016851F07E
:103530001001016070470000010009B2002909D4A0
:10354000012210F01F018A40DFF8941200B24009F6
:1035500041F820207047020012B2002A05D4490128
:10356000DFF8802200B2115408E04901DFF8782228
:1035700000B210F00F00104400F8041C7047DFF890
:103580006C02016851F0010101600168C907FCD4B7
:1035900070479748016851F00101016070479548F4
:1035A000016851F00101016070471FB5684601F0E4
:1035B00077F900280DD0904C18229049200001F096
:1035C0000BFA0020E07549208D490860002001F0C9
:1035D0003BFA01208B490870FFF7D1FF1FBD80B572
:1035E000C0B201280ED10321874801F083F90321DD
:1035F0000320FFF7B0FF0320FFF79EFF0120834960
:10360000087002E0002081490870FFF7C2FFFFF751
:10361000C6FF01207B49087001BD7CB504000D0088
:103620007B48D0E90023CDE900232800C0B2002860
:1036300014D17648007801280DD06F4E18226F49BA
:10364000300001F0C9F90020F07594206C49086041
:10365000002001F0F9F900206A49087001208DF876
:10366000040000208DF8050000942A00D2B26946BB
:10367000002001F0F6FB00280DD05F4C18225F49B6
:10368000200001F0A9F90020E0759E205C49086047
:10369000002001F0D9F973BD7CB505000C002800AD
:1036A00001F0E4FA00280DD0534E1822534930009F
:1036B00001F092F90020F075B52051490860002012
:1036C00001F0C2F92000C0B2002814D14F480078A0
:1036D00001280DD0484E18224849300001F07CF9ED
:1036E0000020F075B92046490860002001F0ACF9CF
:1036F0000020444908700095280001F0ECFA0028E9
:1037000001D0202001E04FF4007001902200D2B2DD
:103710006946002001F0D9FB002801D1012000E01A
:10372000002076BDF8B584B004000D00160020001E
:1037300001F09CFA00280DD02F4F18222F49380095
:1037400001F04AF90020F875DF202D4908600020BB
:1037500001F07AF968461021FDF798FF3000C0B2F9
:10376000002814D12948007801280DD0224F1822B2
:103770002249380001F030F90020F875E620204990
:103780000860002001F060F900201E490870012047
:103790008DF8080001208DF8090002208DF80A003C
:1037A00001208DF80B0000208DF80C00009401958D
:1037B0003200D2B26946002001F00FFA00280DD085
:1037C0000D4C18220D49200001F006F90020E0758B
:1037D000F5200B490860002001F036F905B0F0BD76
:1037E00000E100E000E400E018ED00E00800244003
:1037F00000F4244000F52440F82D0328EC020910C1
:10380000782F032810310328AB3508101131032815
:103810008C0B0910022801D3012010E00B00DBB251
:10382000042B01DB01200AE0DFF8643903EB8000A0
:10383000C9B2405C824201D3012000E00020704701
:10384000F8B504000F0015001E00022C01D3012062
:103850002AE02A003900C9B22000FFF7DBFF012867
:1038600001D1012020E006983900C9B202291ED1F9
:10387000B6F5803F19D2202817D24FF4C052DFF896
:10388000141963030B4403EB850313441F6866F3A9
:1038900017271F606403214401EB850111440A6866
:1038A00060F3C7020A600020F2BD0120FCE7FFB20E
:1038B000032F1FD1B6F1807F1AD2202818D24FF4DF
:1038C000E052DFF8D01863030B4403EB8503134485
:1038D0001F6807F0FF0757EA06271F6064032144AB
:1038E00001EB850111440A6860F3C7020A60DAE758
:1038F0000120D9E70120D7E700B20012C0B270471B
:10390000F8B505000E001700280000B2FFF7F4FF1D
:1039100004002000C0B2022801D3012024E03A00B4
:103920003100C9B22000C0B2FFF774FF012801D1F5
:10393000012019E0DFF85C182000C0B24003084401
:103940002A00D2B200EB8200D0F8000CF6B266F387
:10395000092067F30700E4B264032144EDB201EBF0
:103960008501C1F8000C0020F2BD70B504000D0007
:103970001600022C01D301201DE032002900C9B23B
:103980002000FFF747FF012801D1012013E0DFF8F5
:1039900004186003085850F0004050F0407050F494
:1039A0007F00EDB265F3092066F3070062038850DB
:1039B00064030859002070BDD0F84003704710F52B
:1039C0004170026861F3070202607047D0F8080393
:1039D000C005C00D704710F541710A6852F480327D
:1039E0000A6010F541710A6832F480320A60D0F83A
:1039F00004037047C0F840127047D0F80802C005B1
:103A0000C00D7047D0F80802C0F3C030704738B519
:103A100005002800FFF7F1FF04002800FFF7F2FF80
:103A20000419002C01D1012000E00020C0B232BDF9
:103A3000C0F8C81F7047D0F8C80F7047C0F8C01F43
:103A4000D0F8C00F7047C0F8881F7047D0F8880FB3
:103A50007047C0F8801FD0F8800F7047016851F0A0
:103A60000041016070472DE9F84F04000125002056
:103A70000020DFF8E4082100C9B250F82160D6F830
:103A80000403000601D1042700E001273000FFF7FE
:103A9000D2FF3900C9B2084253D03800C0B2012861
:103AA00035D13000FFF792FF80465FF0000901E05A
:103AB00019F101094046C0B2814522DADFF89CA81D
:103AC0002000C0B21AF80000411C2200D2B20AF84D
:103AD0000210DFF88C182200D2B2120101EB020BA7
:103AE000C0B200903000FFF767FF00990BF80100AB
:103AF0002000C0B21AF800001028D9DB3000FFF710
:103B00006AFF0120DFF85C18E4B2085513E03000CA
:103B1000FFF752FFDFF848182200D2B21201885492
:103B20000120DFF838182200D2B288540120DFF8D3
:103B30003418E4B20855FFB239003000FFF77EFFB9
:103B40000AE03000FFF782FF800505D54FF40071D1
:103B50003000FFF77EFF00252800C0B2BDE8F28FDD
:103B600038B504001500C9B200290ED0102919D0AB
:103B7000202924D030292FD031293AD0402945D0CE
:103B8000502950D060295BD067E0DFF8DC07A060E7
:103B900001202073112060734FF48C70E08112209B
:103BA000208260E0DFF8C407A060012020731120AC
:103BB000607340F21D10E0816B20208253E0DFF83B
:103BC000B007A06001202073112060734FF48E7045
:103BD000E0816A20208246E0DFF89807A06002209A
:103BE00020731120607340F21B10E0816920208255
:103BF00039E0DFF88407A060012020731120607392
:103C000040F21B10E081692020822CE0DFF86C0775
:103C1000A06001202073132060734FF48D70E08149
:103C2000682020821FE0DFF85807A0600120207381
:103C30001120607340F21F10E0816D20208212E09D
:103C4000DFF84007A06001202073112060734FF45B
:103C50008F70E0816C20208205E0DE22DFF82817DB
:103C60000020FFF701FAEDB2002D0ED0102D19D073
:103C7000202D24D0302D2FD0312D3AD0402D45D0BD
:103C8000502D50D0602D5BD067E0DFF8DC0620605F
:103C900000202071112060714FF48C70E08112209F
:103CA000208261E0DFF8C40620600020207111202E
:103CB000607140F21D10E0816B20208254E0DFF83B
:103CC000B006206000202071112060714FF48E70CA
:103CD000E0816A20208247E0DFF89806206001201A
:103CE00020711120607140F21B10E0816920208258
:103CF0003AE0DFF884062060002020711120607116
:103D000040F21B10E081692020822DE0DFF86C0674
:103D1000206000202071132060714FF48D70E081CD
:103D20006820208220E0DFF8580620600020207103
:103D30001120607140F21F10E0816D20208213E09D
:103D4000DFF84006206000202071112060714FF4E0
:103D50008F70E0816C20208206E04FF49172DFF8D2
:103D600028160020FFF780F931BD38B50400DFF8D0
:103D7000E855C9B22000C0B255F82000FFF73AFE5E
:103D80002000C0B255F82000FFF741FE0028F7D010
:103D900031BD70B505000E00140006E03178280032
:103DA000C0B2FFF7E2FF641E761C002CF6D170BD96
:103DB00038B504000D0005E029782000C0B2FFF7F7
:103DC000D4FF6D1C28780028F6D131BD30B4002214
:103DD000DFF890350200D2B29A5C002A2CD0DFF8CE
:103DE00080250400E4B22401145D0C70DFF86C45FA
:103DF0000100C9B2615C491E0500EDB261550100C8
:103E0000C9B2615C002912D000210300DBB2E35C7F
:103E100099420FDA0300DBB21B0113440500EDB237
:103E20002D0115440D446D785D54491CEDE70021CA
:103E3000C0B21954012000E00020C0B230BC70476D
:103E400070B40022DFF81C350200D2B29A5C002A5E
:103E50001CD0DFF808450200D2B2A25C00250600A3
:103E6000F6B2A555002409E0DFF8F4540600F6B2D6
:103E7000360135442D5D0D70491C641C1500EDB2F2
:103E8000AC42F1DB0021C0B2195400E00022100066
:103E9000C0B270BC704770B505000C00DFF8B864A4
:103EA0002800C0B256F82000FFF7D0FD40084000BF
:103EB00001002800C0B256F82000FFF7C4FD28001A
:103EC000C0B256F82000FFF7C1FD30F0020001003B
:103ED0002800C0B256F82000FFF7B5FD2800C0B298
:103EE00056F82000FFF7B2FD30F020000100280056
:103EF000C0B256F82000FFF7A6FD2800C0B256F861
:103F00002000FFF7A3FD30F0400001002800C0B200
:103F100056F82000FFF797FD2800C0B256F82000A1
:103F2000FFF794FD30F0100001002800C0B256F8F1
:103F30002000FFF788FD2800C0B256F82000FFF7E8
:103F400085FD30F4807001002800C0B256F82000D2
:103F5000FFF779FD2800C0B256F82000FFF776FD84
:103F600030F4806001002800C0B256F82000FFF74E
:103F70006AFD002C0ED02800C0B256F82000FFF7D2
:103F80005AFD50F400700100EDB256F82500FFF71D
:103F90005AFD0DE02800C0B256F82000FFF74BFD97
:103FA00030F400700100EDB256F82500FFF74BFD2C
:103FB00070BD70B505000C00DFF89C632800C0B22E
:103FC00056F82000FFF737FD30F008000100280008
:103FD000C0B256F82000FFF72BFD2800C0B256F8FB
:103FE0002000FFF728FD30F0200001002800C0B2BB
:103FF00056F82000FFF71CFD2800C0B256F820003C
:10400000FFF719FD30F4807001002800C0B256F8A7
:104010002000FFF70DFD2800C0B256F82000FFF782
:104020000AFD30F4007001002800C0B256F82000EC
:10403000FFF7FEFC2800C0B256F82000FFF7FBFC9B
:1040400030F4006001002800C0B256F82000FFF7ED
:10405000EFFC2800C0B256F82000D0F80403000698
:104060001FD1002C5BD12800C0B256F82000FFF70A
:10407000E2FC4008400001002800C0B256F82000D1
:10408000FFF7D6FC2800C0B256F82000FFF7D3FC9B
:1040900030F004000100EDB256F82500FFF7C8FC2F
:1040A00070BD002C1DD02800C0B256F82000FFF7CC
:1040B000C2FC30F0040001002800C0B256F8200015
:1040C000FFF7B6FC2800C0B256F82000FFF7B3FC9B
:1040D00050F001000100EDB256F82500FFF7A8FCF2
:1040E000DEE72800C0B256F82000FFF7A4FC30F04D
:1040F000040001002800C0B256F82000FFF798FC29
:104100002800C0B256F82000FFF795FC4008400098
:104110000100EDB256F82500FFF78AFCC0E7280041
:10412000C0B256F82000FFF786FC400840000100AE
:104130002800C0B256F82000FFF77AFC2800C0B271
:1041400056F82000FFF777FC50F004000100EDB2B4
:1041500056F82500FFF76CFCA2E738B504000D0007
:104160002800C0B2102801DA012000E0002040F24F
:104170003122DFF81412C0B2FEF776FFEDB229004B
:104180007548E4B250F82400FFF719FC31BD000077
:104190009C0B0910000004402DE9F0412DED028B2D
:1041A000A8B005000E00170028003900C9B209099F
:1041B000C0B2884201D1012000E000201C00DFF8DD
:1041C000C8814FF421724146C0B2FEF74DFF28006E
:1041D0002100C9B20909C0B2884201D1012000E022
:1041E000002040F285224146C0B2FEF73DFF02A802
:1041F0001421FDF74BFA342100220DF168084046E6
:10420000FEF766FD4C2100220DF11C084046FEF72A
:104210005FFD082080B206FB00F65C48B0FBF6F8B4
:104220005A4806FB180000EE100AB8EE400B01EEEB
:10423000106AB8EE411B80EE010BBFEEED0B10EEE5
:10424000100B08EE100A2200D2B23900C9B202A83F
:10425000FFF786FC08201B909DF80D008DF870007C
:104260001AAA9DF80C100298FFF71BF806201B9065
:104270009DF815008DF870001AAA9DF81410049886
:10428000FFF70FF8002007900820089008200990F9
:1042900002200B9000200C9000201290002014901F
:1042A0002D4C2800C0B254F8200000F0E1FF38493E
:1042B0002A00D2B2382042430A4407A92800C0B2DB
:1042C00054F8200000F092FE2800C0B254F82000FC
:1042D000FFF7C4FB2A00D2B20321BDF91600FFF795
:1042E0000FFBBDF91600FFF707FB8DED008AB8F153
:1042F000010843462A00D2B20321C0B2FFF7A0FA58
:10430000BDF91600FFF7F8FA2A00D2B20321C0B2B5
:10431000FFF72BFBBDF91800ADF800000320ADF846
:10432000020001208DF8040007221A482900C9B2B2
:1043300050F82110684600F0BDF900212800C0B2F5
:10434000FFF737FE00212800C0B2FFF7A4FD28B018
:10435000BDEC028BBDE8F08154C00228602F032819
:10436000A4280328682F03280000314000023140B0
:10437000000531408008314080063140000731405F
:104380000001314080013140C406091000B4C4046A
:10439000AC26032838C0022800F10103810704D0AD
:1043A00010F8011B820781B1FAD10268A2F1013134
:1043B000914311F0803104BF50F8042FF6E709BA99
:1043C000B1FA81F100EBD100401CC01A7047000027
:1043D0000CB430B583B00A4606A902910446002504
:1043E0000194009502AB01A9084878441E3000F002
:1043F0008AFF019A157000284EBF04460198041BDD
:10440000204603B030BC5DF80CFB00BF77D2FFFF45
:1044100082688918816003E082684169521A82606B
:10442000816842699142F7D270472DE9F84305004F
:104430001600002D01D0012000E000200C00AA226F
:10444000DFF8C011C0B2FEF70FFE00270020002CDD
:1044500001D10327B5E0287810F0050F01D004271B
:10446000AFE0287850F0040028702869B042C0F00E
:10447000A380D5F81480A868B8EB0008B04567D2CF
:104480006878002803D0022841D01FD390E042462C
:1044900021006868AB6800EB03094846FDF7FAF8AD
:1044A00041462800FFF7B4FFB6EB080204EB080111
:1044B0006868AB6800EB03042000FDF7EBF8B6EB8F
:1044C000080841462800FFF7A3FF71E05FEA4802B1
:1044D00021006868AB6800EB43094846FDF7DAF84D
:1044E00041462800FFF794FFB6EB0802520004EBA8
:1044F00048016868AB6800EB43042000FDF7CAF888
:10450000B6EB080841462800FFF782FF50E05FEA5B
:10451000880221006868AB6800EB83094846FDF714
:10452000B9F841462800FFF773FFB6EB0802920086
:1045300004EB88016868AB6800EB83042000FDF79A
:10454000A9F8B6EB080841462800FFF761FF2FE005
:104550006878002803D002281DD00ED328E032004E
:1045600021006868AB6800EB03042000FDF792F8B7
:1045700031002800FFF74CFF1AE072002100686844
:10458000AB6800EB43042000FDF784F831002800FD
:10459000FFF73EFF0CE0B20021006868AB6800EB5B
:1045A00083042000FDF776F831002800FFF730FF84
:1045B0002869861B2E6100E00527287810F0FB0093
:1045C00028703800C0B2BDE8F283F8B504000E00D0
:1045D00017001D00002C01D0012000E000204FF446
:1045E00007720849C0B2FEF73FFD00206760002156
:1045F000217066700021A1600021E1602561656184
:10460000C0B2F2BDE4040910010009B2002908D4C7
:10461000012210F01F018A401B4900B2400941F8F5
:1046200020207047010009B2002908D4012210F0AF
:104630001F018A40154900B2400941F82020704707
:10464000020012B2002A04D44901114A00B21154E6
:1046500007E049010F4A00B210F00F00104400F8C3
:10466000041C7047002800D162B60B480168491C41
:104670000160704772B608490868002802D00868CF
:10468000401E08600868704700E100E080E200E03A
:1046900000E400E018ED00E0B430032880B5FFF737
:1046A000E9FFFEF7A7F801BD80B5C9B200B2FFF778
:1046B000C7FF01BD70B504000D001600200001F019
:1046C00077FD2900B4F9000001F0B1FD3100C9B255
:1046D000B4F90200FFF7E8FFB4F90200FFF7A2FF08
:1046E000B4F90200FFF790FF70BD000038B5040078
:1046F000082C10D3DFF8B0521822DFF8B0122800CF
:1047000000F06AF90020E875E820DFF8A4120860DC
:10471000002000F099F9DFF89C026401204432BDCA
:10472000DFF894321B6862F31F4361F30F03836069
:104730007047C0687047DFF884321B6862F31F431C
:1047400061F30F03036000687047C069C00FC0B217
:104750007047F8B502000D00002A01D1052053E092
:10476000DFF85C120868C0F30320002801D10020A4
:1047700007E00868C0F303200E2801D1012000E003
:104780000220DFF84012400101EB00067FF0704488
:10479000DFF83472380011001022FCF77BFF386814
:1047A0004008400038601021380000F0A9F9DFF817
:1047B0001C323A000121300001F07EFD002804D0B7
:1047C000012021E0641E002C15D03000FFF7BDFF52
:1047D0000028F7D1002D08D01021380000F07EF914
:1047E000280039001022FCF755FF00F041F801289D
:1047F00003D1032008E0022006E000F039F8002889
:1048000001D1002000E00420F2BD38B501000029EC
:1048100001D105202BE06A4A1068C0F3032000286C
:1048200001D1002007E01068C0F303200E2801D159
:10483000012000E00220634A400102EB0004624DC7
:1048400028001022FCF726FF286840084000286056
:104850001021280000F054F95C4B2A0001212000AF
:1048600001F02AFD002801D0012000E0002032BD27
:1048700010B5554C1021200000F030F9206810F0E0
:104880007040B0F1204F01D1002008E0206810F006
:104890007040B0F1704F01D1012000E0022010BD46
:1048A00038B50400FFF7E4FF05002800C0B2022875
:1048B00002D17FF070400DE0002C04D0200042496E
:1048C0001022FCF7E7FEEDB2002D01D1002001E03F
:1048D0003D48006832BD10F07041B1F1204F01D168
:1048E000002006E010F07041B1F1704F01D07FF070
:1048F000704070473EB5364AD2E90045CDE90045E3
:10490000ADF8021033490860684601F051FC0FF21F
:104910004101BDF9000001F08AFC0220FFF7E6FE2C
:10492000274A1168C1F30321002901D1002107E0C2
:104930001168C1F303210E2901D1012100E00221F8
:104940000022012313FA01F1FFF7EAFE37BD000050
:1049500038B500200220FFF7C9FE04002000FFF751
:10496000E8FE050016490868C0F30320002801D1BD
:10497000002007E00868C0F303200E2801D10120C1
:1049800000E002202900C140C80705D51149086888
:10499000002801D0086880472A00120CADB2290017
:1049A0002000FFF7C8FE31BDF82D0328640209106E
:1049B000782F032800102240180C09101C0C091035
:1049C0000000204000002240C02E0328742F03283E
:1049D000940B0910702F032801B58B071AD1830798
:1049E00024D1121F21D351F8043BA3F1013C2CEA3E
:1049F000030C1CF0803C04BF40F8043BF1E79CFA38
:104A00008CFCBCFA8CF1C1F118018B40CB4040F812
:104A1000043B13E0042A09D311F8013B521E00F8AD
:104A2000013B5BB18B07F7D1D9E7121D5AB111F8E1
:104A3000013B521E00F8013B03B1F8D111001CBF2D
:104A40000022FEF749F901BD01BEFEE780B5354AF7
:104A500035490B6893423ED00A60344A12684A6274
:104A6000334A8A6202684A6042688A608268CA6021
:104A7000C2680A6102694A6142698A618269CA61DF
:104A8000C2690A62F1EE102A12F0900F23D0294A6F
:104A90008A62026ACA62426A0A63826A4A63C26AB4
:104AA0008A63026BCA63426B0A64826B4A64C26B9C
:104AB0008A64026CCA64426C0A65826C4A65C26C84
:104AC0008A65026DCA65426D0A66826D4A66C26D6C
:104AD0008A66006EC86601F01FFC01BD01290EDB6D
:104AE00010F01F025118BFF34F8F134A106020308F
:104AF00020390129F9DABFF34F8FBFF36F8F704769
:104B000001290EDB10F01F025118BFF34F8F0B4A23
:104B10001060203020390129F9DABFF34F8FBFF33D
:104B20006F8F7047FAF9F8F73428032828ED00E072
:104B3000A4A3A2A1ABAAA9A85CEF00E068EF00E0E3
:104B4000DFF83C040068400B10F001007047DFF80C
:104B500030040068000B10F001007047DFF82404F7
:104B6000016851F0010101600168C907FCD4704778
:104B70001FB50400C9B2012924D168461021FCF7F1
:104B800085FD69462000FFF7E4FD0100C9B2012957
:104B900002D1DFF8F4031EE00100C9B2022902D1FC
:104BA000DFF8E80317E0C0B2042802D1DFF8E00321
:104BB00011E0009800F0F6F800280CD1FFF7CEFFC6
:104BC000002008E02000FFF720FE002802D0DFF8D8
:104BD000B80300E0002004B010BD38B584B00C006C
:104BE0001500002C02D1DFF8AC033DE0206800F096
:104BF000C7F8012802D06068002802D1DFF89403CA
:104C000032E068461021FCF741FD0620009960F370
:104C10001F610091207A009960F30F210091607A62
:104C2000009960F317410091E07A019960F30F2138
:104C30000191A07A019960F307010191207B01990C
:104C400060F31F6101912068029060680390DFF8B3
:104C50004803A17A30F811106068FFF751FF29006E
:104C6000C9B26846FFF784FF05B030BD10B5040037
:104C7000FFF766FF00280ED114F16C40B0F5403FFD
:104C800001D2002026E0DFF814030419B4F5803FB8
:104C90001FD200201EE014F16C40B0F5C03F01D2DD
:104CA000002017E0DFF8F8020019B0F5004F01D23C
:104CB00000200FE014F16B40B0F5C03F01D200209E
:104CC00008E0DFF8E0020419B4F5004F01D200203B
:104CD00000E0012010BD10B50400FFF731FF0028EF
:104CE00007D1DFF8B8020419B4F5803F11D20120D2
:104CF00010E0DFF8AC020019B0F5004F01D201203E
:104D000008E0DFF8A0020419B4F5004F01D2012039
:104D100000E0002010BD10B50400FFF718FF0028C8
:104D20000ED114F17040B0F57C1F01D2002026E0B6
:104D3000DFF874020419B4F5003F1FD200201EE012
:104D400014F17040B0F5FC1F01D2002017E0DFF82D
:104D50005C020019B0F5803F01D200200FE014F191
:104D60006E40B0F5FC1F01D2002008E0DFF84002E1
:104D70000419B4F5803F01D2002000E0012010BDED
:104D800010B504002000FFF771FF002801D10020BA
:104D900007E02000FFF7BFFF002801D1002000E05E
:104DA000012010BD80B5FFF796FD002801D100203D
:104DB00056E07FF07041884202D1DFF8D4014FE025
:104DC000DFF8F011401A1CD0801E1DD0401E1ED0EE
:104DD000401E1FD0401E20D0001F21D0873822D077
:104DE000401E23D0123824D0401E25D0401E26D08D
:104DF000801E27D0801E28D0083829D009382AD014
:104E00002CE05FF4A4002BE0DFF8AC0128E0DFF831
:104E1000AC0125E0DFF8A80122E0DFF86C011FE01B
:104E2000DFF8A0011CE0DFF8A00119E0DFF89C0129
:104E300016E0DFF89C0113E0DFF8980110E0DFF8DE
:104E400098010DE0DFF894010AE0DFF8940107E033
:104E5000DFF8900104E0DFF8900101E0DFF83001B5
:104E600002BD38B584B00C001500002C02D1DFF86B
:104E7000240128E02068FFF783FF012802D1DFF832
:104E8000140120E0207810F0030F02D0DFF80401B5
:104E900019E068461021FCF7F9FB1420009960F333
:104EA0001F6100912079009960F30F2100916079D2
:104EB000009960F317410091206801902900C9B260
:104EC0006846FFF755FE05B030BD38B588B00C0018
:104ED0001500002C01D12F484FE06068002801D157
:104EE0002C484AE02068FFF7C1FE012808D020685E
:104EF000616810EB8100401EFFF7B8FE012801D168
:104F000024483AE068461021FCF7C0FB2A200099AB
:104F100060F31F610091206801906068401E80B2BC
:104F20000299090C090408430290EDB2012D1CD12D
:104F300004A81021FCF7AAFB04A96846FFF709FCA6
:104F40000100C9B2012901D10F4816E00100C9B220
:104F5000022901D10D4810E0C0B2042801D10C484B
:104F60000BE00498FFF71EFF07E06846FFF74DFCD3
:104F7000002801D0044800E0002009B030BD000046
:104F80000000244008002440040052001000520099
:104F9000FF0052000F005200D80A09100000FDEB7C
:104FA0000080FEEB0080FEEA0000C1EF0080E0EF31
:104FB0000080E0ED010000F001005200020052000C
:104FC0000300520005005200060052000700520084
:104FD00008005200090052000A0052000B00520063
:104FE0000C0052000D0052000E0052002DE9F44F4B
:104FF000DFF8D822DFF8D8321B68DFF8D8422468FF
:10500000DFF8D4522D68DFF8D4623668DFF8D0724A
:105010003F68DFF8D0C2DCF800C0DFF8CCE2DEF891
:1050200000E0DFF8C882D8F80080DFF8C492D9F831
:105030000090DFF8C0A2DAF800A0002800F0158187
:10504000002900F012810A68022A06D191F8262070
:10505000002A02D15FF0000B03E0D1F804B0BBF1ED
:10506000010B91F82420002A01D0012200E0002247
:1050700062F3104333F440436BF30303022262F301
:10508000196303600A7812F0030262F3196404647E
:1050900091F82520002A01D0012200E0002262F3CD
:1050A0008615CA7E002A01D0012200E0002262F3A8
:1050B0008A254A7E002A01D0012200E0002262F304
:1050C00008258A7E002A01D0012200E0002262F336
:1050D00049258A6B521E12F00F0262F313450A69CA
:1050E000521E12F00702ED08ED0015434A6962F303
:1050F00004154A69520862F3451585640A7B002A43
:1051000001D0012200E0002262F308260A7E002A74
:1051100001D0012200E0002262F349268A68521E73
:1051200012F01F02760976011643C0F800630A7F69
:1051300002F0FF023F0A3F02174391F8202002F0DD
:10514000FF0262F31747C0F8107391F82720002A76
:1051500001D0012200E0002262F3082C0A69521EED
:1051600012F007025FEADC0C5FEACC0C52EA0C0C8E
:105170004A6962F3041C4A69520862F3451CC0F88C
:1051800044C00A7B002A01D0012200E0002262F321
:10519000082E8A68521E12F01F025FEA5E1E5FEA46
:1051A0004E1E52EA0E0E0A68012A01D1012200E0C9
:1051B000002262F3104EC0F800E291F83C2002F0A9
:1051C000FF025FEA18285FEA082852EA0808C0F8D8
:1051D000048391F82820002A01D0012200E0002257
:1051E00062F35969CA6A012A01D1012200E0002252
:1051F00062F318694A6B012A01D1012300E0002300
:10520000009A63F3104991F8303003F0FF035FEA2E
:1052100019295FEA092953EA0909C0F8509091F861
:10522000443003F0FF035FEA1A2A5FEA0A2A53EACE
:105230000A0AC0F804A28B6CC0F8883F096CC0F859
:10524000C81F002A10D000205060002010600020ED
:1052500090600020D060002010620020D06200200A
:105260001063DFF89400506300221000BDE8F28F55
:10527000DFF8881001605FF440110164002181644F
:1052800040F20711C0F800130022C0F804230022E6
:10529000C0F8102300224264C0F800120021C0F8B8
:1052A0000412002101650021C0F8C81E0021C0F8C9
:1052B000881E0021C0F8C81F0021C0F8881F0021E7
:1052C000C0F8081F0021C0F8481F70470160AA00FD
:1052D000F00B0910F40B0910F80B0910FC0B091066
:1052E000000C0910040C0910080C09100C0C091012
:1052F000100C0910140C0910EFCDAB000F000003C7
:1053000040F0200070472DE9F14FB0B09246049173
:105310000DF142013A9A2B9199464A7000200AE019
:105320001AF8011B0498309A90470028049000F066
:1053300034860D98401C0D909AF8000050B1252835
:10534000EED1002100220791089209910A920B9157
:105350000C9204E00D9800F022BE41F001011AF811
:10536000010F2028F9D023280CD02B2804D02D2879
:1053700005D0302809D00BE041F00201EFE741F001
:105380000401ECE741F00801E9E741F01001E6E72C
:105390002A280FD1D9F8002052F8040BC9F80020B0
:1053A00000280F9003D540420F9041F004010AF10C
:1053B000010A14E00F92DFF8EC3B0AE00F989842E4
:1053C00005DA00EB800402EB4402303A0F920AF156
:1053D000010A9AF80020A2F130000A28EED39AF8C8
:1053E00000002E2803D04FF0FF320E9229E01AF869
:1053F000010F2A2809D1D9F8000050F8042BC9F868
:1054000000000E920AF1010A1BE02D280CBF0AF1E0
:10541000010A002000220E92DFF8884B0BE040B911
:105420000E9AA24205DA02EB820503EB4503303BFC
:105430000E930AF1010A9AF80030A3F130020A2A09
:10544000EDD3ADF840100FF660309AF8001000F080
:1054500065FF08B11AF8010B8DF842009DF8420073
:10546000682805D19AF8000068280CD1622106E06E
:105470006C2804BF9AF800006C2804D171218DF8C3
:1054800042100AF1010A12A806901AF801BBBBF1FA
:1054900025012CD01C3900F09481091F022940F20B
:1054A0009081133900F0AB84093900F08A81891E9C
:1054B00000F04085491E00F0ED84491E022940F2AB
:1054C0008081091F00F0E684491F00F0EF80491E2B
:1054D00000F09584491E00F0D780C91E0CD0891EAB
:1054E00000F08D84C91E00F08A8400F02EBD0123D7
:1054F0000793252100F026BDD9F8000050F8044B91
:10550000C9F80000002C059440F0AB802B99487836
:10551000002800F0A1804FF0FF340FF6942000F037
:1055200009FF241A40F0398500F01BBD01236A46AB
:1055300002A9304600F000FE002840F02E85641ECF
:10554000F4D13096079C12AF74B1309E17F8011B4E
:105550000498B0470028049000F01F850D98401C67
:10556000641E0D90F2D130960A9C3021002C8DF8EB
:1055700000100CDD309E01236A4602A9304600F07F
:10558000DBFD002840F00985641EF4D13096059FAC
:10559000089C74B1309E17F8011B0498B04700288E
:1055A000049000F0FA840D98401C641E0D90F2D116
:1055B00030960B9C3021002C8DF800100CDD309EB5
:1055C00001236A4602A9304600F0B6FD002840F0EB
:1055D000E484641EF4D1309605980899099C471814
:1055E00074B1309E17F8011B0498B047002804904E
:1055F00000F0D3840D98401C641E0D90F2D13096BB
:105600000C9C3021002C8DF800100CDD309E012305
:105610006A4602A9304600F08FFD002840F0BD84A4
:10562000641EF4D130969DF8400041077FF584AEAA
:105630002020002D8DF800007FF77EAE309C0123E6
:105640006A4602A9204600F077FD002840F0A584B4
:105650006D1EF4D130946FE60FF63C30059000F0EB
:1056600080BC0E9D002D04D52046FEF795FE044615
:1056700007E02A46204600F07DFE002814BF041BE8
:105680002C46089400F06DBCD9F8001051F8040BBA
:10569000C9F8001020F00004002121F0FF35CDE909
:1056A000024512AB0593782100F040BC2B99487855
:1056B00020B14FF0FF340FF6B02030E79DF84200E4
:1056C000622860D0682817D06A283FD06C2806D09E
:1056D000712847D074282CD07A281DD062E0D9F8E0
:1056E000001051F8040BC9F80010002866D14FF0E3
:1056F000FF340FF68C2012E7D9F8001051F8040B94
:10570000C9F8001020B94FF0FF340FF6742006E7F7
:105710000D99018000F025BCD9F8001051F8040B58
:10572000C9F80010002849D14FF0FF340FF650207F
:10573000F5E6D9F8001051F8040BC9F8001000285C
:105740003CD14FF0FF340FF63820E8E6D9F80010CE
:1057500051F8040BC9F8001080B94FF0FF340FF670
:105760002020DCE6D9F8001051F8040BC9F800102D
:1057700020B94FF0FF340FF60820D0E60D9AD3176A
:10578000C0E90023EDE3D9F8001051F8040BC9F883
:10579000001020B94FF0FF340FF6E410BFE60D996A
:1057A0000170DEE3D9F8001051F8040BC9F80010BD
:1057B00020B94FF0FF340FF6C810B0E60D99016024
:1057C000CFE39DF842004C2807BFD9F80010CA1D4E
:1057D000D9F80000C21D22F00702C9F80020D2E962
:1057E00000010832C9F80020CDE90201C80F02D03B
:1057F00007982D210AE0BDF84000810702D50798DF
:105800002B2103E0C00705D50798202112AA1154C7
:10581000401C079012A807994BF0200300EB010CE5
:10582000DDE90201CDE92C01612BCDF814C021ACDA
:105830000BD00E98002848BF062105D404BF4BF0BA
:105840002000672801D101210E91DDE902014F00FE
:1058500047EAD0777E15FF174FF0FF32974208BF17
:10586000964210D1090341EA10510003002908BFF4
:10587000002808D0ABF1610503211A2D089118D337
:105880000FF61C1110E0DDE902014A00521512F179
:10589000010F11D108030FD1ABF1610503211A2DBE
:1058A00008911FD30FF6001103226046FBF7F2FEAA
:1058B00057E30FF6E801F7E7DDE902016A4600F079
:1058C00085FDCDE902014BF02000612811D105983A
:1058D00030210170821C0592BBF1610F0CBF782151
:1058E000582102E00FF6BC01DEE741700798801CEA
:1058F0000790DDE9020120F0000231F0004308BF0B
:10590000002A02D10026002542E14BF02008B8F120
:10591000610F40F092800E98002847BF212101912D
:10592000401C0190019FDDE92C017F1C0022002317
:10593000DDE9024500F082FD38BF85F000450099A1
:105940008DF88420091F002F00910DF1850632DDAE
:10595000204629460022002300F08AFD2BD21C227B
:1059600000F0A0FD04460D4600F01EFEFF1F002FB4
:10597000804609DD00F01FFE02460B462046294600
:1059800000F020FE04460D46F01D0721B8F1000F7F
:105990000CDD491E5EBF08F00F0200F8012D4FEA32
:1059A0002818F3D502E0002200F8012D491EFAD58F
:1059B000C61D002FCCDC0DF18500361A01980DF1C3
:1059C00085048642D8BF304600282FD4B04206DA7C
:1059D0000DF185010A5C082AA8BF0F2100DA002119
:1059E000024621AB134400E0401E13F80159521E39
:1059F0008D42F9D00F2904D10DF185018B5C5B1C20
:105A00008B54002A04D50099091D21AC401C00913B
:105A1000411E0BD4621813783033DDB23A2DA4BF87
:105A20005B443A3B491E02F80139F4D50E9900292E
:105A300040F1AC80421E0E92A8E00099DFF8E82603
:105A400047F29750414391FBF2F20092DDE92C4579
:105A5000C2F10702002A25F0004504DD2046294650
:105A600000F03EFB0BE052420020DFF8C01600F0D1
:105A700037FB02460B462046294600F0ACFD0446A3
:105A80000D46B8F1660F06BF009F0A3706270E982D
:105A90003F18142FC8BF142730208DF884000DF153
:105AA0008506002F34DD2046294600F09DFD014685
:105AB0000A4606F1080304200A26B2FBF6F606EBB6
:105AC000860EA2EB4E02303203F8012C0A22B6FBFE
:105AD000F2F202EB820EA6EB4E063036401E03F8C1
